{
  "_format": "hh-sol-artifact-1",
  "contractName": "Factory",
  "sourceName": "contracts/Factory.sol",
  "abi": [
    {
      "anonymous": false,
      "inputs": [
        {
          "indexed": true,
          "internalType": "address",
          "name": "tokenAddress",
          "type": "address"
        }
      ],
      "name": "TokenDeployed",
      "type": "event"
    },
    {
      "inputs": [
        {
          "internalType": "string",
          "name": "_name",
          "type": "string"
        },
        {
          "internalType": "string",
          "name": "_symbol",
          "type": "string"
        },
        {
          "internalType": "uint8",
          "name": "_decimals",
          "type": "uint8"
        },
        {
          "internalType": "uint256",
          "name": "_initialSupply",
          "type": "uint256"
        }
      ],
      "name": "deployToken",
      "outputs": [],
      "stateMutability": "nonpayable",
      "type": "function"
    }
  ],
  "bytecode": "0x6080604052348015600f57600080fd5b50611f148061001f6000396000f3fe608060405234801561001057600080fd5b506004361061002b5760003560e01c8063b7d0204414610030575b600080fd5b61004a600480360381019061004591906102aa565b61004c565b005b60008484848460405161005e906100d4565b61006b94939291906103e6565b604051809103906000f080158015610087573d6000803e3d6000fd5b5090508073ffffffffffffffffffffffffffffffffffffffff167f91d24864a084ab70b268a1f865e757ca12006cf298d763b6be697302ef86498c60405160405180910390a25050505050565b611aa58061043a83390190565b6000604051905090565b600080fd5b600080fd5b600080fd5b600080fd5b6000601f19601f8301169050919050565b7f4e487b7100000000000000000000000000000000000000000000000000000000600052604160045260246000fd5b610148826100ff565b810181811067ffffffffffffffff8211171561016757610166610110565b5b80604052505050565b600061017a6100e1565b9050610186828261013f565b919050565b600067ffffffffffffffff8211156101a6576101a5610110565b5b6101af826100ff565b9050602081019050919050565b82818337600083830152505050565b60006101de6101d98461018b565b610170565b9050828152602081018484840111156101fa576101f96100fa565b5b6102058482856101bc565b509392505050565b600082601f830112610222576102216100f5565b5b81356102328482602086016101cb565b91505092915050565b600060ff82169050919050565b6102518161023b565b811461025c57600080fd5b50565b60008135905061026e81610248565b92915050565b6000819050919050565b61028781610274565b811461029257600080fd5b50565b6000813590506102a48161027e565b92915050565b600080600080608085870312156102c4576102c36100eb565b5b600085013567ffffffffffffffff8111156102e2576102e16100f0565b5b6102ee8782880161020d565b945050602085013567ffffffffffffffff81111561030f5761030e6100f0565b5b61031b8782880161020d565b935050604061032c8782880161025f565b925050606061033d87828801610295565b91505092959194509250565b600081519050919050565b600082825260208201905092915050565b60005b83811015610383578082015181840152602081019050610368565b60008484015250505050565b600061039a82610349565b6103a48185610354565b93506103b4818560208601610365565b6103bd816100ff565b840191505092915050565b6103d18161023b565b82525050565b6103e081610274565b82525050565b60006080820190508181036000830152610400818761038f565b90508181036020830152610414818661038f565b905061042360408301856103c8565b61043060608301846103d7565b9594505050505056fe608060405234801561001057600080fd5b50604051611aa5380380611aa583398181016040528101906100329190610338565b836001908161004191906105ee565b50826000908161005191906105ee565b5081600260006101000a81548160ff021916908360ff160217905550600260009054906101000a900460ff1660ff16600a61008c9190610822565b81610097919061086d565b600381905550600354600460003373ffffffffffffffffffffffffffffffffffffffff1673ffffffffffffffffffffffffffffffffffffffff168152602001908152602001600020819055503373ffffffffffffffffffffffffffffffffffffffff16600073ffffffffffffffffffffffffffffffffffffffff167fddf252ad1be2c89b69c2b068fc378daa952ba7f163c4a11628f55a4df523b3ef60035460405161014391906108be565b60405180910390a3505050506108d9565b6000604051905090565b600080fd5b600080fd5b600080fd5b600080fd5b6000601f19601f8301169050919050565b7f4e487b7100000000000000000000000000000000000000000000000000000000600052604160045260246000fd5b6101bb82610172565b810181811067ffffffffffffffff821117156101da576101d9610183565b5b80604052505050565b60006101ed610154565b90506101f982826101b2565b919050565b600067ffffffffffffffff82111561021957610218610183565b5b61022282610172565b9050602081019050919050565b60005b8381101561024d578082015181840152602081019050610232565b60008484015250505050565b600061026c610267846101fe565b6101e3565b9050828152602081018484840111156102885761028761016d565b5b61029384828561022f565b509392505050565b600082601f8301126102b0576102af610168565b5b81516102c0848260208601610259565b91505092915050565b600060ff82169050919050565b6102df816102c9565b81146102ea57600080fd5b50565b6000815190506102fc816102d6565b92915050565b6000819050919050565b61031581610302565b811461032057600080fd5b50565b6000815190506103328161030c565b92915050565b600080600080608085870312156103525761035161015e565b5b600085015167ffffffffffffffff8111156103705761036f610163565b5b61037c8782880161029b565b945050602085015167ffffffffffffffff81111561039d5761039c610163565b5b6103a98782880161029b565b93505060406103ba878288016102ed565b92505060606103cb87828801610323565b91505092959194509250565b600081519050919050565b7f4e487b7100000000000000000000000000000000000000000000000000000000600052602260045260246000fd5b6000600282049050600182168061042957607f821691505b60208210810361043c5761043b6103e2565b5b50919050565b60008190508160005260206000209050919050565b60006020601f8301049050919050565b600082821b905092915050565b6000600883026104a47fffffffffffffffffffffffffffffffffffffffffffffffffffffffffffffffff82610467565b6104ae8683610467565b95508019841693508086168417925050509392505050565b6000819050919050565b60006104eb6104e66104e184610302565b6104c6565b610302565b9050919050565b6000819050919050565b610505836104d0565b610519610511826104f2565b848454610474565b825550505050565b600090565b61052e610521565b6105398184846104fc565b505050565b5b8181101561055d57610552600082610526565b60018101905061053f565b5050565b601f8211156105a25761057381610442565b61057c84610457565b8101602085101561058b578190505b61059f61059785610457565b83018261053e565b50505b505050565b600082821c905092915050565b60006105c5600019846008026105a7565b1980831691505092915050565b60006105de83836105b4565b9150826002028217905092915050565b6105f7826103d7565b67ffffffffffffffff8111156106105761060f610183565b5b61061a8254610411565b610625828285610561565b600060209050601f8311600181146106585760008415610646578287015190505b61065085826105d2565b8655506106b8565b601f19841661066686610442565b60005b8281101561068e57848901518255600182019150602085019450602081019050610669565b868310156106ab57848901516106a7601f8916826105b4565b8355505b6001600288020188555050505b505050505050565b7f4e487b7100000000000000000000000000000000000000000000000000000000600052601160045260246000fd5b60008160011c9050919050565b6000808291508390505b600185111561074657808604811115610722576107216106c0565b5b60018516156107315780820291505b808102905061073f856106ef565b9450610706565b94509492505050565b60008261075f576001905061081b565b8161076d576000905061081b565b8160018114610783576002811461078d576107bc565b600191505061081b565b60ff84111561079f5761079e6106c0565b5b8360020a9150848211156107b6576107b56106c0565b5b5061081b565b5060208310610133831016604e8410600b84101617156107f15782820a9050838111156107ec576107eb6106c0565b5b61081b565b6107fe84848460016106fc565b92509050818404811115610815576108146106c0565b5b81810290505b9392505050565b600061082d82610302565b915061083883610302565b92506108657fffffffffffffffffffffffffffffffffffffffffffffffffffffffffffffffff848461074f565b905092915050565b600061087882610302565b915061088383610302565b925082820261089181610302565b915082820484148315176108a8576108a76106c0565b5b5092915050565b6108b881610302565b82525050565b60006020820190506108d360008301846108af565b92915050565b6111bd806108e86000396000f3fe608060405234801561001057600080fd5b50600436106100b45760003560e01c806342966c681161007157806342966c68146101a357806370a08231146101d35780638da5cb5b1461020357806395d89b4114610221578063a9059cbb1461023f578063dd62ed3e1461026f576100b4565b806306fdde03146100b9578063095ea7b3146100d757806318160ddd1461010757806323b872dd14610125578063313ce5671461015557806340c10f1914610173575b600080fd5b6100c161029f565b6040516100ce9190610de7565b60405180910390f35b6100f160048036038101906100ec9190610ea2565b61032d565b6040516100fe9190610efd565b60405180910390f35b61010f61041f565b60405161011c9190610f27565b60405180910390f35b61013f600480360381019061013a9190610f42565b610425565b60405161014c9190610efd565b60405180910390f35b61015d61071c565b60405161016a9190610fb1565b60405180910390f35b61018d60048036038101906101889190610ea2565b61072f565b60405161019a9190610efd565b60405180910390f35b6101bd60048036038101906101b89190610fcc565b6108b8565b6040516101ca9190610efd565b60405180910390f35b6101ed60048036038101906101e89190610ff9565b610a32565b6040516101fa9190610f27565b60405180910390f35b61020b610a7b565b6040516102189190611035565b60405180910390f35b610229610aa1565b6040516102369190610de7565b60405180910390f35b61025960048036038101906102549190610ea2565b610b2f565b6040516102669190610efd565b60405180910390f35b61028960048036038101906102849190611050565b610cd0565b6040516102969190610f27565b60405180910390f35b600180546102ac906110bf565b80601f01602080910402602001604051908101604052809291908181526020018280546102d8906110bf565b80156103255780601f106102fa57610100808354040283529160200191610325565b820191906000526020600020905b81548152906001019060200180831161030857829003601f168201915b505050505081565b600081600560003373ffffffffffffffffffffffffffffffffffffffff1673ffffffffffffffffffffffffffffffffffffffff16815260200190815260200160002060008573ffffffffffffffffffffffffffffffffffffffff1673ffffffffffffffffffffffffffffffffffffffff168152602001908152602001600020819055508273ffffffffffffffffffffffffffffffffffffffff163373ffffffffffffffffffffffffffffffffffffffff167f8c5be1e5ebec7d5bd14f71427d1e84f3dd0314c0f7b2291e5b200ac8c7c3b9258460405161040d9190610f27565b60405180910390a36001905092915050565b60035481565b60008073ffffffffffffffffffffffffffffffffffffffff168473ffffffffffffffffffffffffffffffffffffffff160361045f57600080fd5b600073ffffffffffffffffffffffffffffffffffffffff168373ffffffffffffffffffffffffffffffffffffffff160361049857600080fd5b600460008573ffffffffffffffffffffffffffffffffffffffff1673ffffffffffffffffffffffffffffffffffffffff168152602001908152602001600020548211156104e457600080fd5b600560008573ffffffffffffffffffffffffffffffffffffffff1673ffffffffffffffffffffffffffffffffffffffff16815260200190815260200160002060003373ffffffffffffffffffffffffffffffffffffffff1673ffffffffffffffffffffffffffffffffffffffff1681526020019081526020016000205482111561056d57600080fd5b81600460008673ffffffffffffffffffffffffffffffffffffffff1673ffffffffffffffffffffffffffffffffffffffff16815260200190815260200160002060008282546105bc919061111f565b9250508190555081600460008573ffffffffffffffffffffffffffffffffffffffff1673ffffffffffffffffffffffffffffffffffffffff16815260200190815260200160002060008282546106129190611153565b9250508190555081600560008673ffffffffffffffffffffffffffffffffffffffff1673ffffffffffffffffffffffffffffffffffffffff16815260200190815260200160002060003373ffffffffffffffffffffffffffffffffffffffff1673ffffffffffffffffffffffffffffffffffffffff16815260200190815260200160002060008282546106a5919061111f565b925050819055508273ffffffffffffffffffffffffffffffffffffffff168473ffffffffffffffffffffffffffffffffffffffff167fddf252ad1be2c89b69c2b068fc378daa952ba7f163c4a11628f55a4df523b3ef846040516107099190610f27565b60405180910390a3600190509392505050565b600260009054906101000a900460ff1681565b6000600660009054906101000a900473ffffffffffffffffffffffffffffffffffffffff1673ffffffffffffffffffffffffffffffffffffffff163373ffffffffffffffffffffffffffffffffffffffff161461078b57600080fd5b816003600082825461079d9190611153565b9250508190555081600460008573ffffffffffffffffffffffffffffffffffffffff1673ffffffffffffffffffffffffffffffffffffffff16815260200190815260200160002060008282546107f39190611153565b925050819055508273ffffffffffffffffffffffffffffffffffffffff167f0f6798a560793a54c3bcfe86a93cde1e73087d944c0ea20544137d4121396885836040516108409190610f27565b60405180910390a28273ffffffffffffffffffffffffffffffffffffffff16600073ffffffffffffffffffffffffffffffffffffffff167fddf252ad1be2c89b69c2b068fc378daa952ba7f163c4a11628f55a4df523b3ef846040516108a69190610f27565b60405180910390a36001905092915050565b600081600460003373ffffffffffffffffffffffffffffffffffffffff1673ffffffffffffffffffffffffffffffffffffffff16815260200190815260200160002054101561090657600080fd5b8160036000828254610918919061111f565b9250508190555081600460003373ffffffffffffffffffffffffffffffffffffffff1673ffffffffffffffffffffffffffffffffffffffff168152602001908152602001600020600082825461096e919061111f565b925050819055503373ffffffffffffffffffffffffffffffffffffffff167fcc16f5dbb4873280815c1ee09dbd06736cffcc184412cf7a71a0fdb75d397ca5836040516109bb9190610f27565b60405180910390a2600073ffffffffffffffffffffffffffffffffffffffff163373ffffffffffffffffffffffffffffffffffffffff167fddf252ad1be2c89b69c2b068fc378daa952ba7f163c4a11628f55a4df523b3ef84604051610a219190610f27565b60405180910390a360019050919050565b6000600460008373ffffffffffffffffffffffffffffffffffffffff1673ffffffffffffffffffffffffffffffffffffffff168152602001908152602001600020549050919050565b600660009054906101000a900473ffffffffffffffffffffffffffffffffffffffff1681565b60008054610aae906110bf565b80601f0160208091040260200160405190810160405280929190818152602001828054610ada906110bf565b8015610b275780601f10610afc57610100808354040283529160200191610b27565b820191906000526020600020905b815481529060010190602001808311610b0a57829003601f168201915b505050505081565b60008073ffffffffffffffffffffffffffffffffffffffff168373ffffffffffffffffffffffffffffffffffffffff1603610b6957600080fd5b81600460003373ffffffffffffffffffffffffffffffffffffffff1673ffffffffffffffffffffffffffffffffffffffff168152602001908152602001600020541015610bb557600080fd5b81600460003373ffffffffffffffffffffffffffffffffffffffff1673ffffffffffffffffffffffffffffffffffffffff1681526020019081526020016000206000828254610c04919061111f565b9250508190555081600460008573ffffffffffffffffffffffffffffffffffffffff1673ffffffffffffffffffffffffffffffffffffffff1681526020019081526020016000206000828254610c5a9190611153565b925050819055508273ffffffffffffffffffffffffffffffffffffffff163373ffffffffffffffffffffffffffffffffffffffff167fddf252ad1be2c89b69c2b068fc378daa952ba7f163c4a11628f55a4df523b3ef84604051610cbe9190610f27565b60405180910390a36001905092915050565b6000600560008473ffffffffffffffffffffffffffffffffffffffff1673ffffffffffffffffffffffffffffffffffffffff16815260200190815260200160002060008373ffffffffffffffffffffffffffffffffffffffff1673ffffffffffffffffffffffffffffffffffffffff16815260200190815260200160002054905092915050565b600081519050919050565b600082825260208201905092915050565b60005b83811015610d91578082015181840152602081019050610d76565b60008484015250505050565b6000601f19601f8301169050919050565b6000610db982610d57565b610dc38185610d62565b9350610dd3818560208601610d73565b610ddc81610d9d565b840191505092915050565b60006020820190508181036000830152610e018184610dae565b905092915050565b600080fd5b600073ffffffffffffffffffffffffffffffffffffffff82169050919050565b6000610e3982610e0e565b9050919050565b610e4981610e2e565b8114610e5457600080fd5b50565b600081359050610e6681610e40565b92915050565b6000819050919050565b610e7f81610e6c565b8114610e8a57600080fd5b50565b600081359050610e9c81610e76565b92915050565b60008060408385031215610eb957610eb8610e09565b5b6000610ec785828601610e57565b9250506020610ed885828601610e8d565b9150509250929050565b60008115159050919050565b610ef781610ee2565b82525050565b6000602082019050610f126000830184610eee565b92915050565b610f2181610e6c565b82525050565b6000602082019050610f3c6000830184610f18565b92915050565b600080600060608486031215610f5b57610f5a610e09565b5b6000610f6986828701610e57565b9350506020610f7a86828701610e57565b9250506040610f8b86828701610e8d565b9150509250925092565b600060ff82169050919050565b610fab81610f95565b82525050565b6000602082019050610fc66000830184610fa2565b92915050565b600060208284031215610fe257610fe1610e09565b5b6000610ff084828501610e8d565b91505092915050565b60006020828403121561100f5761100e610e09565b5b600061101d84828501610e57565b91505092915050565b61102f81610e2e565b82525050565b600060208201905061104a6000830184611026565b92915050565b6000806040838503121561106757611066610e09565b5b600061107585828601610e57565b925050602061108685828601610e57565b9150509250929050565b7f4e487b7100000000000000000000000000000000000000000000000000000000600052602260045260246000fd5b600060028204905060018216806110d757607f821691505b6020821081036110ea576110e9611090565b5b50919050565b7f4e487b7100000000000000000000000000000000000000000000000000000000600052601160045260246000fd5b600061112a82610e6c565b915061113583610e6c565b925082820390508181111561114d5761114c6110f0565b5b92915050565b600061115e82610e6c565b915061116983610e6c565b9250828201905080821115611181576111806110f0565b5b9291505056fea2646970667358221220f2ada104cc4bd5c9843b4b7c929a5e424cab6adc375b9a17de8613889dd7657364736f6c634300081a0033a2646970667358221220095c58b3755749257cda4102b9d9b14c9c9e6123a58576f6654cd3a35732257f64736f6c634300081a0033",
  "linkReferences": {},
  "deployedLinkReferences": {}
}