{
  "_format": "hh-sol-artifact-1",
  "contractName": "Factory",
  "sourceName": "contracts/Factory.sol",
  "abi": [
    {
      "inputs": [],
      "stateMutability": "nonpayable",
      "type": "constructor"
    },
    {
      "anonymous": false,
      "inputs": [
        {
          "indexed": true,
          "internalType": "address",
          "name": "tokenAddress",
          "type": "address"
        }
      ],
      "name": "TokenDeployed",
      "type": "event"
    },
    {
      "inputs": [
        {
          "internalType": "address",
          "name": "tokenAddress",
          "type": "address"
        },
        {
          "internalType": "address",
          "name": "tokenOwner",
          "type": "address"
        },
        {
          "internalType": "address",
          "name": "spender",
          "type": "address"
        }
      ],
      "name": "allowanceToken",
      "outputs": [
        {
          "internalType": "uint256",
          "name": "remaining",
          "type": "uint256"
        }
      ],
      "stateMutability": "view",
      "type": "function"
    },
    {
      "inputs": [
        {
          "internalType": "address",
          "name": "tokenAddress",
          "type": "address"
        },
        {
          "internalType": "address",
          "name": "spender",
          "type": "address"
        },
        {
          "internalType": "uint256",
          "name": "tokens",
          "type": "uint256"
        }
      ],
      "name": "approveToken",
      "outputs": [
        {
          "internalType": "bool",
          "name": "success",
          "type": "bool"
        }
      ],
      "stateMutability": "nonpayable",
      "type": "function"
    },
    {
      "inputs": [
        {
          "internalType": "address",
          "name": "tokenAddress",
          "type": "address"
        },
        {
          "internalType": "address",
          "name": "tokenOwner",
          "type": "address"
        }
      ],
      "name": "balanceOfToken",
      "outputs": [
        {
          "internalType": "uint256",
          "name": "balance",
          "type": "uint256"
        }
      ],
      "stateMutability": "view",
      "type": "function"
    },
    {
      "inputs": [
        {
          "internalType": "address",
          "name": "tokenAddress",
          "type": "address"
        },
        {
          "internalType": "uint256",
          "name": "tokens",
          "type": "uint256"
        }
      ],
      "name": "burnToken",
      "outputs": [],
      "stateMutability": "nonpayable",
      "type": "function"
    },
    {
      "inputs": [
        {
          "internalType": "string",
          "name": "_name",
          "type": "string"
        },
        {
          "internalType": "string",
          "name": "_symbol",
          "type": "string"
        },
        {
          "internalType": "uint8",
          "name": "_decimals",
          "type": "uint8"
        },
        {
          "internalType": "uint256",
          "name": "_initialSupply",
          "type": "uint256"
        }
      ],
      "name": "deployToken",
      "outputs": [],
      "stateMutability": "nonpayable",
      "type": "function"
    },
    {
      "inputs": [
        {
          "internalType": "address",
          "name": "tokenAddress",
          "type": "address"
        },
        {
          "internalType": "address",
          "name": "to",
          "type": "address"
        },
        {
          "internalType": "uint256",
          "name": "tokens",
          "type": "uint256"
        }
      ],
      "name": "mintToken",
      "outputs": [],
      "stateMutability": "nonpayable",
      "type": "function"
    },
    {
      "inputs": [],
      "name": "owner",
      "outputs": [
        {
          "internalType": "address",
          "name": "",
          "type": "address"
        }
      ],
      "stateMutability": "view",
      "type": "function"
    },
    {
      "inputs": [
        {
          "internalType": "address",
          "name": "newOwner",
          "type": "address"
        }
      ],
      "name": "transferOwnership",
      "outputs": [],
      "stateMutability": "nonpayable",
      "type": "function"
    },
    {
      "inputs": [
        {
          "internalType": "address",
          "name": "tokenAddress",
          "type": "address"
        },
        {
          "internalType": "address",
          "name": "to",
          "type": "address"
        },
        {
          "internalType": "uint256",
          "name": "tokens",
          "type": "uint256"
        }
      ],
      "name": "transferToken",
      "outputs": [
        {
          "internalType": "bool",
          "name": "success",
          "type": "bool"
        }
      ],
      "stateMutability": "nonpayable",
      "type": "function"
    },
    {
      "inputs": [
        {
          "internalType": "address",
          "name": "tokenAddress",
          "type": "address"
        },
        {
          "internalType": "address",
          "name": "from",
          "type": "address"
        },
        {
          "internalType": "address",
          "name": "to",
          "type": "address"
        },
        {
          "internalType": "uint256",
          "name": "tokens",
          "type": "uint256"
        }
      ],
      "name": "transferTokenFrom",
      "outputs": [
        {
          "internalType": "bool",
          "name": "success",
          "type": "bool"
        }
      ],
      "stateMutability": "nonpayable",
      "type": "function"
    }
  ],
  "bytecode": "0x6080604052348015600f57600080fd5b50336000806101000a81548173ffffffffffffffffffffffffffffffffffffffff021916908373ffffffffffffffffffffffffffffffffffffffff1602179055506132128061005f6000396000f3fe608060405234801561001057600080fd5b506004361061009e5760003560e01c8063da3e339711610066578063da3e339714610145578063e599490514610175578063f2fde38b146101a5578063f5537ede146101c1578063f59e38b7146101f15761009e565b80636bec32da146100a35780638da5cb5b146100bf578063992f1431146100dd578063b7d020441461010d578063d1df306c14610129575b600080fd5b6100bd60048036038101906100b89190610990565b610221565b005b6100c7610333565b6040516100d491906109f2565b60405180910390f35b6100f760048036038101906100f29190610a0d565b610357565b6040516101049190610a6f565b60405180910390f35b61012760048036038101906101229190610c09565b6103de565b005b610143600480360381019061013e9190610ca8565b61046a565b005b61015f600480360381019061015a9190610990565b610579565b60405161016c9190610d03565b60405180910390f35b61018f600480360381019061018a9190610d1e565b610602565b60405161019c9190610d03565b60405180910390f35b6101bf60048036038101906101ba9190610d85565b61068e565b005b6101db60048036038101906101d69190610990565b6107ce565b6040516101e89190610d03565b60405180910390f35b61020b60048036038101906102069190610db2565b610857565b6040516102189190610a6f565b60405180910390f35b60008054906101000a900473ffffffffffffffffffffffffffffffffffffffff1673ffffffffffffffffffffffffffffffffffffffff163373ffffffffffffffffffffffffffffffffffffffff16146102af576040517f08c379a00000000000000000000000000000000000000000000000000000000081526004016102a690610e75565b60405180910390fd5b8273ffffffffffffffffffffffffffffffffffffffff166340c10f1983836040518363ffffffff1660e01b81526004016102ea929190610e95565b6020604051808303816000875af1158015610309573d6000803e3d6000fd5b505050506040513d601f19601f8201168201806040525081019061032d9190610eea565b50505050565b60008054906101000a900473ffffffffffffffffffffffffffffffffffffffff1681565b60008373ffffffffffffffffffffffffffffffffffffffff1663dd62ed3e84846040518363ffffffff1660e01b8152600401610394929190610f17565b602060405180830381865afa1580156103b1573d6000803e3d6000fd5b505050506040513d601f19601f820116820180604052508101906103d59190610f55565b90509392505050565b60008484848433306040516103f2906108db565b61040196959493929190610fff565b604051809103906000f08015801561041d573d6000803e3d6000fd5b5090508073ffffffffffffffffffffffffffffffffffffffff167f91d24864a084ab70b268a1f865e757ca12006cf298d763b6be697302ef86498c60405160405180910390a25050505050565b60008054906101000a900473ffffffffffffffffffffffffffffffffffffffff1673ffffffffffffffffffffffffffffffffffffffff163373ffffffffffffffffffffffffffffffffffffffff16146104f8576040517f08c379a00000000000000000000000000000000000000000000000000000000081526004016104ef90610e75565b60405180910390fd5b8173ffffffffffffffffffffffffffffffffffffffff166342966c68826040518263ffffffff1660e01b81526004016105319190610a6f565b6020604051808303816000875af1158015610550573d6000803e3d6000fd5b505050506040513d601f19601f820116820180604052508101906105749190610eea565b505050565b60008373ffffffffffffffffffffffffffffffffffffffff1663095ea7b384846040518363ffffffff1660e01b81526004016105b6929190610e95565b6020604051808303816000875af11580156105d5573d6000803e3d6000fd5b505050506040513d601f19601f820116820180604052508101906105f99190610eea565b90509392505050565b60008473ffffffffffffffffffffffffffffffffffffffff166323b872dd8585856040518463ffffffff1660e01b81526004016106419392919061106e565b6020604051808303816000875af1158015610660573d6000803e3d6000fd5b505050506040513d601f19601f820116820180604052508101906106849190610eea565b9050949350505050565b60008054906101000a900473ffffffffffffffffffffffffffffffffffffffff1673ffffffffffffffffffffffffffffffffffffffff163373ffffffffffffffffffffffffffffffffffffffff161461071c576040517f08c379a000000000000000000000000000000000000000000000000000000000815260040161071390610e75565b60405180910390fd5b600073ffffffffffffffffffffffffffffffffffffffff168173ffffffffffffffffffffffffffffffffffffffff160361078b576040517f08c379a0000000000000000000000000000000000000000000000000000000008152600401610782906110f1565b60405180910390fd5b806000806101000a81548173ffffffffffffffffffffffffffffffffffffffff021916908373ffffffffffffffffffffffffffffffffffffffff16021790555050565b60008373ffffffffffffffffffffffffffffffffffffffff1663a9059cbb84846040518363ffffffff1660e01b815260040161080b929190610e95565b6020604051808303816000875af115801561082a573d6000803e3d6000fd5b505050506040513d601f19601f8201168201806040525081019061084e9190610eea565b90509392505050565b60008273ffffffffffffffffffffffffffffffffffffffff166370a08231836040518263ffffffff1660e01b815260040161089291906109f2565b602060405180830381865afa1580156108af573d6000803e3d6000fd5b505050506040513d601f19601f820116820180604052508101906108d39190610f55565b905092915050565b6120cb8061111283390190565b6000604051905090565b600080fd5b600080fd5b600073ffffffffffffffffffffffffffffffffffffffff82169050919050565b6000610927826108fc565b9050919050565b6109378161091c565b811461094257600080fd5b50565b6000813590506109548161092e565b92915050565b6000819050919050565b61096d8161095a565b811461097857600080fd5b50565b60008135905061098a81610964565b92915050565b6000806000606084860312156109a9576109a86108f2565b5b60006109b786828701610945565b93505060206109c886828701610945565b92505060406109d98682870161097b565b9150509250925092565b6109ec8161091c565b82525050565b6000602082019050610a0760008301846109e3565b92915050565b600080600060608486031215610a2657610a256108f2565b5b6000610a3486828701610945565b9350506020610a4586828701610945565b9250506040610a5686828701610945565b9150509250925092565b610a698161095a565b82525050565b6000602082019050610a846000830184610a60565b92915050565b600080fd5b600080fd5b6000601f19601f8301169050919050565b7f4e487b7100000000000000000000000000000000000000000000000000000000600052604160045260246000fd5b610add82610a94565b810181811067ffffffffffffffff82111715610afc57610afb610aa5565b5b80604052505050565b6000610b0f6108e8565b9050610b1b8282610ad4565b919050565b600067ffffffffffffffff821115610b3b57610b3a610aa5565b5b610b4482610a94565b9050602081019050919050565b82818337600083830152505050565b6000610b73610b6e84610b20565b610b05565b905082815260208101848484011115610b8f57610b8e610a8f565b5b610b9a848285610b51565b509392505050565b600082601f830112610bb757610bb6610a8a565b5b8135610bc7848260208601610b60565b91505092915050565b600060ff82169050919050565b610be681610bd0565b8114610bf157600080fd5b50565b600081359050610c0381610bdd565b92915050565b60008060008060808587031215610c2357610c226108f2565b5b600085013567ffffffffffffffff811115610c4157610c406108f7565b5b610c4d87828801610ba2565b945050602085013567ffffffffffffffff811115610c6e57610c6d6108f7565b5b610c7a87828801610ba2565b9350506040610c8b87828801610bf4565b9250506060610c9c8782880161097b565b91505092959194509250565b60008060408385031215610cbf57610cbe6108f2565b5b6000610ccd85828601610945565b9250506020610cde8582860161097b565b9150509250929050565b60008115159050919050565b610cfd81610ce8565b82525050565b6000602082019050610d186000830184610cf4565b92915050565b60008060008060808587031215610d3857610d376108f2565b5b6000610d4687828801610945565b9450506020610d5787828801610945565b9350506040610d6887828801610945565b9250506060610d798782880161097b565b91505092959194509250565b600060208284031215610d9b57610d9a6108f2565b5b6000610da984828501610945565b91505092915050565b60008060408385031215610dc957610dc86108f2565b5b6000610dd785828601610945565b9250506020610de885828601610945565b9150509250929050565b600082825260208201905092915050565b7f4f6e6c7920746865206f776e65722063616e2063616c6c20746869732066756e60008201527f6374696f6e000000000000000000000000000000000000000000000000000000602082015250565b6000610e5f602583610df2565b9150610e6a82610e03565b604082019050919050565b60006020820190508181036000830152610e8e81610e52565b9050919050565b6000604082019050610eaa60008301856109e3565b610eb76020830184610a60565b9392505050565b610ec781610ce8565b8114610ed257600080fd5b50565b600081519050610ee481610ebe565b92915050565b600060208284031215610f0057610eff6108f2565b5b6000610f0e84828501610ed5565b91505092915050565b6000604082019050610f2c60008301856109e3565b610f3960208301846109e3565b9392505050565b600081519050610f4f81610964565b92915050565b600060208284031215610f6b57610f6a6108f2565b5b6000610f7984828501610f40565b91505092915050565b600081519050919050565b60005b83811015610fab578082015181840152602081019050610f90565b60008484015250505050565b6000610fc282610f82565b610fcc8185610df2565b9350610fdc818560208601610f8d565b610fe581610a94565b840191505092915050565b610ff981610bd0565b82525050565b600060c08201905081810360008301526110198189610fb7565b9050818103602083015261102d8188610fb7565b905061103c6040830187610ff0565b6110496060830186610a60565b61105660808301856109e3565b61106360a08301846109e3565b979650505050505050565b600060608201905061108360008301866109e3565b61109060208301856109e3565b61109d6040830184610a60565b949350505050565b7f4e6577206f776e657220697320746865207a65726f2061646472657373000000600082015250565b60006110db601d83610df2565b91506110e6826110a5565b602082019050919050565b6000602082019050818103600083015261110a816110ce565b905091905056fe608060405234801561001057600080fd5b506040516120cb3803806120cb8339818101604052810190610032919061040b565b856001908161004191906106e7565b50846000908161005191906106e7565b5083600260006101000a81548160ff021916908360ff1602179055508360ff16600a61007d919061091b565b836100889190610966565b600381905550600354600460008473ffffffffffffffffffffffffffffffffffffffff1673ffffffffffffffffffffffffffffffffffffffff1681526020019081526020016000208190555081600660006101000a81548173ffffffffffffffffffffffffffffffffffffffff021916908373ffffffffffffffffffffffffffffffffffffffff16021790555080600760006101000a81548173ffffffffffffffffffffffffffffffffffffffff021916908373ffffffffffffffffffffffffffffffffffffffff1602179055508173ffffffffffffffffffffffffffffffffffffffff16600073ffffffffffffffffffffffffffffffffffffffff167fddf252ad1be2c89b69c2b068fc378daa952ba7f163c4a11628f55a4df523b3ef6003546040516101b691906109b7565b60405180910390a35050505050506109d2565b6000604051905090565b600080fd5b600080fd5b600080fd5b600080fd5b6000601f19601f8301169050919050565b7f4e487b7100000000000000000000000000000000000000000000000000000000600052604160045260246000fd5b610230826101e7565b810181811067ffffffffffffffff8211171561024f5761024e6101f8565b5b80604052505050565b60006102626101c9565b905061026e8282610227565b919050565b600067ffffffffffffffff82111561028e5761028d6101f8565b5b610297826101e7565b9050602081019050919050565b60005b838110156102c25780820151818401526020810190506102a7565b60008484015250505050565b60006102e16102dc84610273565b610258565b9050828152602081018484840111156102fd576102fc6101e2565b5b6103088482856102a4565b509392505050565b600082601f830112610325576103246101dd565b5b81516103358482602086016102ce565b91505092915050565b600060ff82169050919050565b6103548161033e565b811461035f57600080fd5b50565b6000815190506103718161034b565b92915050565b6000819050919050565b61038a81610377565b811461039557600080fd5b50565b6000815190506103a781610381565b92915050565b600073ffffffffffffffffffffffffffffffffffffffff82169050919050565b60006103d8826103ad565b9050919050565b6103e8816103cd565b81146103f357600080fd5b50565b600081519050610405816103df565b92915050565b60008060008060008060c08789031215610428576104276101d3565b5b600087015167ffffffffffffffff811115610446576104456101d8565b5b61045289828a01610310565b965050602087015167ffffffffffffffff811115610473576104726101d8565b5b61047f89828a01610310565b955050604061049089828a01610362565b94505060606104a189828a01610398565b93505060806104b289828a016103f6565b92505060a06104c389828a016103f6565b9150509295509295509295565b600081519050919050565b7f4e487b7100000000000000000000000000000000000000000000000000000000600052602260045260246000fd5b6000600282049050600182168061052257607f821691505b602082108103610535576105346104db565b5b50919050565b60008190508160005260206000209050919050565b60006020601f8301049050919050565b600082821b905092915050565b60006008830261059d7fffffffffffffffffffffffffffffffffffffffffffffffffffffffffffffffff82610560565b6105a78683610560565b95508019841693508086168417925050509392505050565b6000819050919050565b60006105e46105df6105da84610377565b6105bf565b610377565b9050919050565b6000819050919050565b6105fe836105c9565b61061261060a826105eb565b84845461056d565b825550505050565b600090565b61062761061a565b6106328184846105f5565b505050565b5b818110156106565761064b60008261061f565b600181019050610638565b5050565b601f82111561069b5761066c8161053b565b61067584610550565b81016020851015610684578190505b61069861069085610550565b830182610637565b50505b505050565b600082821c905092915050565b60006106be600019846008026106a0565b1980831691505092915050565b60006106d783836106ad565b9150826002028217905092915050565b6106f0826104d0565b67ffffffffffffffff811115610709576107086101f8565b5b610713825461050a565b61071e82828561065a565b600060209050601f831160018114610751576000841561073f578287015190505b61074985826106cb565b8655506107b1565b601f19841661075f8661053b565b60005b8281101561078757848901518255600182019150602085019450602081019050610762565b868310156107a457848901516107a0601f8916826106ad565b8355505b6001600288020188555050505b505050505050565b7f4e487b7100000000000000000000000000000000000000000000000000000000600052601160045260246000fd5b60008160011c9050919050565b6000808291508390505b600185111561083f5780860481111561081b5761081a6107b9565b5b600185161561082a5780820291505b8081029050610838856107e8565b94506107ff565b94509492505050565b6000826108585760019050610914565b816108665760009050610914565b816001811461087c5760028114610886576108b5565b6001915050610914565b60ff841115610898576108976107b9565b5b8360020a9150848211156108af576108ae6107b9565b5b50610914565b5060208310610133831016604e8410600b84101617156108ea5782820a9050838111156108e5576108e46107b9565b5b610914565b6108f784848460016107f5565b9250905081840481111561090e5761090d6107b9565b5b81810290505b9392505050565b600061092682610377565b915061093183610377565b925061095e7fffffffffffffffffffffffffffffffffffffffffffffffffffffffffffffffff8484610848565b905092915050565b600061097182610377565b915061097c83610377565b925082820261098a81610377565b915082820484148315176109a1576109a06107b9565b5b5092915050565b6109b181610377565b82525050565b60006020820190506109cc60008301846109a8565b92915050565b6116ea806109e16000396000f3fe608060405234801561001057600080fd5b50600436106100cf5760003560e01c806342966c681161008c57806395d89b411161006657806395d89b411461023c578063a9059cbb1461025a578063c45a01551461028a578063dd62ed3e146102a8576100cf565b806342966c68146101be57806370a08231146101ee5780638da5cb5b1461021e576100cf565b806306fdde03146100d4578063095ea7b3146100f257806318160ddd1461012257806323b872dd14610140578063313ce5671461017057806340c10f191461018e575b600080fd5b6100dc6102d8565b6040516100e99190611086565b60405180910390f35b61010c60048036038101906101079190611141565b610366565b604051610119919061119c565b60405180910390f35b61012a610458565b60405161013791906111c6565b60405180910390f35b61015a600480360381019061015591906111e1565b61045e565b604051610167919061119c565b60405180910390f35b61017861082d565b6040516101859190611250565b60405180910390f35b6101a860048036038101906101a39190611141565b610840565b6040516101b5919061119c565b60405180910390f35b6101d860048036038101906101d3919061126b565b6109ff565b6040516101e5919061119c565b60405180910390f35b61020860048036038101906102039190611298565b610c3f565b60405161021591906111c6565b60405180910390f35b610226610c88565b60405161023391906112d4565b60405180910390f35b610244610cae565b6040516102519190611086565b60405180910390f35b610274600480360381019061026f9190611141565b610d3c565b604051610281919061119c565b60405180910390f35b610292610f49565b60405161029f91906112d4565b60405180910390f35b6102c260048036038101906102bd91906112ef565b610f6f565b6040516102cf91906111c6565b60405180910390f35b600180546102e59061135e565b80601f01602080910402602001604051908101604052809291908181526020018280546103119061135e565b801561035e5780601f106103335761010080835404028352916020019161035e565b820191906000526020600020905b81548152906001019060200180831161034157829003601f168201915b505050505081565b600081600560003373ffffffffffffffffffffffffffffffffffffffff1673ffffffffffffffffffffffffffffffffffffffff16815260200190815260200160002060008573ffffffffffffffffffffffffffffffffffffffff1673ffffffffffffffffffffffffffffffffffffffff168152602001908152602001600020819055508273ffffffffffffffffffffffffffffffffffffffff163373ffffffffffffffffffffffffffffffffffffffff167f8c5be1e5ebec7d5bd14f71427d1e84f3dd0314c0f7b2291e5b200ac8c7c3b9258460405161044691906111c6565b60405180910390a36001905092915050565b60035481565b60008073ffffffffffffffffffffffffffffffffffffffff168473ffffffffffffffffffffffffffffffffffffffff16036104ce576040517f08c379a00000000000000000000000000000000000000000000000000000000081526004016104c590611401565b60405180910390fd5b600073ffffffffffffffffffffffffffffffffffffffff168373ffffffffffffffffffffffffffffffffffffffff160361053d576040517f08c379a000000000000000000000000000000000000000000000000000000000815260040161053490611493565b60405180910390fd5b600460008573ffffffffffffffffffffffffffffffffffffffff1673ffffffffffffffffffffffffffffffffffffffff168152602001908152602001600020548211156105bf576040517f08c379a00000000000000000000000000000000000000000000000000000000081526004016105b6906114ff565b60405180910390fd5b600560008573ffffffffffffffffffffffffffffffffffffffff1673ffffffffffffffffffffffffffffffffffffffff16815260200190815260200160002060003373ffffffffffffffffffffffffffffffffffffffff1673ffffffffffffffffffffffffffffffffffffffff1681526020019081526020016000205482111561067e576040517f08c379a00000000000000000000000000000000000000000000000000000000081526004016106759061156b565b60405180910390fd5b81600460008673ffffffffffffffffffffffffffffffffffffffff1673ffffffffffffffffffffffffffffffffffffffff16815260200190815260200160002060008282546106cd91906115ba565b9250508190555081600460008573ffffffffffffffffffffffffffffffffffffffff1673ffffffffffffffffffffffffffffffffffffffff168152602001908152602001600020600082825461072391906115ee565b9250508190555081600560008673ffffffffffffffffffffffffffffffffffffffff1673ffffffffffffffffffffffffffffffffffffffff16815260200190815260200160002060003373ffffffffffffffffffffffffffffffffffffffff1673ffffffffffffffffffffffffffffffffffffffff16815260200190815260200160002060008282546107b691906115ba565b925050819055508273ffffffffffffffffffffffffffffffffffffffff168473ffffffffffffffffffffffffffffffffffffffff167fddf252ad1be2c89b69c2b068fc378daa952ba7f163c4a11628f55a4df523b3ef8460405161081a91906111c6565b60405180910390a3600190509392505050565b600260009054906101000a900460ff1681565b6000600760009054906101000a900473ffffffffffffffffffffffffffffffffffffffff1673ffffffffffffffffffffffffffffffffffffffff163373ffffffffffffffffffffffffffffffffffffffff16146108d2576040517f08c379a00000000000000000000000000000000000000000000000000000000081526004016108c990611694565b60405180910390fd5b81600360008282546108e491906115ee565b9250508190555081600460008573ffffffffffffffffffffffffffffffffffffffff1673ffffffffffffffffffffffffffffffffffffffff168152602001908152602001600020600082825461093a91906115ee565b925050819055508273ffffffffffffffffffffffffffffffffffffffff167f0f6798a560793a54c3bcfe86a93cde1e73087d944c0ea20544137d41213968858360405161098791906111c6565b60405180910390a28273ffffffffffffffffffffffffffffffffffffffff16600073ffffffffffffffffffffffffffffffffffffffff167fddf252ad1be2c89b69c2b068fc378daa952ba7f163c4a11628f55a4df523b3ef846040516109ed91906111c6565b60405180910390a36001905092915050565b6000600760009054906101000a900473ffffffffffffffffffffffffffffffffffffffff1673ffffffffffffffffffffffffffffffffffffffff163373ffffffffffffffffffffffffffffffffffffffff1614610a91576040517f08c379a0000000000000000000000000000000000000000000000000000000008152600401610a8890611694565b60405180910390fd5b81600460003373ffffffffffffffffffffffffffffffffffffffff1673ffffffffffffffffffffffffffffffffffffffff168152602001908152602001600020541015610b13576040517f08c379a0000000000000000000000000000000000000000000000000000000008152600401610b0a906114ff565b60405180910390fd5b8160036000828254610b2591906115ba565b9250508190555081600460003373ffffffffffffffffffffffffffffffffffffffff1673ffffffffffffffffffffffffffffffffffffffff1681526020019081526020016000206000828254610b7b91906115ba565b925050819055503373ffffffffffffffffffffffffffffffffffffffff167fcc16f5dbb4873280815c1ee09dbd06736cffcc184412cf7a71a0fdb75d397ca583604051610bc891906111c6565b60405180910390a2600073ffffffffffffffffffffffffffffffffffffffff163373ffffffffffffffffffffffffffffffffffffffff167fddf252ad1be2c89b69c2b068fc378daa952ba7f163c4a11628f55a4df523b3ef84604051610c2e91906111c6565b60405180910390a360019050919050565b6000600460008373ffffffffffffffffffffffffffffffffffffffff1673ffffffffffffffffffffffffffffffffffffffff168152602001908152602001600020549050919050565b600660009054906101000a900473ffffffffffffffffffffffffffffffffffffffff1681565b60008054610cbb9061135e565b80601f0160208091040260200160405190810160405280929190818152602001828054610ce79061135e565b8015610d345780601f10610d0957610100808354040283529160200191610d34565b820191906000526020600020905b815481529060010190602001808311610d1757829003601f168201915b505050505081565b60008073ffffffffffffffffffffffffffffffffffffffff168373ffffffffffffffffffffffffffffffffffffffff1603610dac576040517f08c379a0000000000000000000000000000000000000000000000000000000008152600401610da390611493565b60405180910390fd5b81600460003373ffffffffffffffffffffffffffffffffffffffff1673ffffffffffffffffffffffffffffffffffffffff168152602001908152602001600020541015610e2e576040517f08c379a0000000000000000000000000000000000000000000000000000000008152600401610e25906114ff565b60405180910390fd5b81600460003373ffffffffffffffffffffffffffffffffffffffff1673ffffffffffffffffffffffffffffffffffffffff1681526020019081526020016000206000828254610e7d91906115ba565b9250508190555081600460008573ffffffffffffffffffffffffffffffffffffffff1673ffffffffffffffffffffffffffffffffffffffff1681526020019081526020016000206000828254610ed391906115ee565b925050819055508273ffffffffffffffffffffffffffffffffffffffff163373ffffffffffffffffffffffffffffffffffffffff167fddf252ad1be2c89b69c2b068fc378daa952ba7f163c4a11628f55a4df523b3ef84604051610f3791906111c6565b60405180910390a36001905092915050565b600760009054906101000a900473ffffffffffffffffffffffffffffffffffffffff1681565b6000600560008473ffffffffffffffffffffffffffffffffffffffff1673ffffffffffffffffffffffffffffffffffffffff16815260200190815260200160002060008373ffffffffffffffffffffffffffffffffffffffff1673ffffffffffffffffffffffffffffffffffffffff16815260200190815260200160002054905092915050565b600081519050919050565b600082825260208201905092915050565b60005b83811015611030578082015181840152602081019050611015565b60008484015250505050565b6000601f19601f8301169050919050565b600061105882610ff6565b6110628185611001565b9350611072818560208601611012565b61107b8161103c565b840191505092915050565b600060208201905081810360008301526110a0818461104d565b905092915050565b600080fd5b600073ffffffffffffffffffffffffffffffffffffffff82169050919050565b60006110d8826110ad565b9050919050565b6110e8816110cd565b81146110f357600080fd5b50565b600081359050611105816110df565b92915050565b6000819050919050565b61111e8161110b565b811461112957600080fd5b50565b60008135905061113b81611115565b92915050565b60008060408385031215611158576111576110a8565b5b6000611166858286016110f6565b92505060206111778582860161112c565b9150509250929050565b60008115159050919050565b61119681611181565b82525050565b60006020820190506111b1600083018461118d565b92915050565b6111c08161110b565b82525050565b60006020820190506111db60008301846111b7565b92915050565b6000806000606084860312156111fa576111f96110a8565b5b6000611208868287016110f6565b9350506020611219868287016110f6565b925050604061122a8682870161112c565b9150509250925092565b600060ff82169050919050565b61124a81611234565b82525050565b60006020820190506112656000830184611241565b92915050565b600060208284031215611281576112806110a8565b5b600061128f8482850161112c565b91505092915050565b6000602082840312156112ae576112ad6110a8565b5b60006112bc848285016110f6565b91505092915050565b6112ce816110cd565b82525050565b60006020820190506112e960008301846112c5565b92915050565b60008060408385031215611306576113056110a8565b5b6000611314858286016110f6565b9250506020611325858286016110f6565b9150509250929050565b7f4e487b7100000000000000000000000000000000000000000000000000000000600052602260045260246000fd5b6000600282049050600182168061137657607f821691505b6020821081036113895761138861132f565b5b50919050565b7f43616e6e6f74207472616e736665722066726f6d20746865207a65726f20616460008201527f6472657373000000000000000000000000000000000000000000000000000000602082015250565b60006113eb602583611001565b91506113f68261138f565b604082019050919050565b6000602082019050818103600083015261141a816113de565b9050919050565b7f43616e6e6f74207472616e7366657220746f20746865207a65726f206164647260008201527f6573730000000000000000000000000000000000000000000000000000000000602082015250565b600061147d602383611001565b915061148882611421565b604082019050919050565b600060208201905081810360008301526114ac81611470565b9050919050565b7f496e73756666696369656e742062616c616e6365000000000000000000000000600082015250565b60006114e9601483611001565b91506114f4826114b3565b602082019050919050565b60006020820190508181036000830152611518816114dc565b9050919050565b7f416c6c6f77616e63652065786365656465640000000000000000000000000000600082015250565b6000611555601283611001565b91506115608261151f565b602082019050919050565b6000602082019050818103600083015261158481611548565b9050919050565b7f4e487b7100000000000000000000000000000000000000000000000000000000600052601160045260246000fd5b60006115c58261110b565b91506115d08361110b565b92508282039050818111156115e8576115e761158b565b5b92915050565b60006115f98261110b565b91506116048361110b565b925082820190508082111561161c5761161b61158b565b5b92915050565b7f4f6e6c792074686520666163746f72792063616e2063616c6c2074686973206660008201527f756e6374696f6e00000000000000000000000000000000000000000000000000602082015250565b600061167e602783611001565b915061168982611622565b604082019050919050565b600060208201905081810360008301526116ad81611671565b905091905056fea264697066735822122051a380654e84f6d579e7544f7acfcedb0a607c786b5eeea46a4d7a4fa8cfb58f64736f6c634300081a0033a2646970667358221220b1f44706c9c7af809bf16e9968bfedb356691527e5aeea90a627a07277225a2764736f6c634300081a0033",
  "linkReferences": {},
  "deployedLinkReferences": {}
}