{
  "_format": "hh-sol-artifact-1",
  "contractName": "Nft",
  "sourceName": "contracts/Nft.sol",
  "abi": [
    {
      "inputs": [
        {
          "internalType": "string",
          "name": "name",
          "type": "string"
        },
        {
          "internalType": "string",
          "name": "symbol",
          "type": "string"
        },
        {
          "internalType": "address",
          "name": "initialOwner",
          "type": "address"
        }
      ],
      "stateMutability": "nonpayable",
      "type": "constructor"
    },
    {
      "inputs": [
        {
          "internalType": "address",
          "name": "sender",
          "type": "address"
        },
        {
          "internalType": "uint256",
          "name": "tokenId",
          "type": "uint256"
        },
        {
          "internalType": "address",
          "name": "owner",
          "type": "address"
        }
      ],
      "name": "ERC721IncorrectOwner",
      "type": "error"
    },
    {
      "inputs": [
        {
          "internalType": "address",
          "name": "operator",
          "type": "address"
        },
        {
          "internalType": "uint256",
          "name": "tokenId",
          "type": "uint256"
        }
      ],
      "name": "ERC721InsufficientApproval",
      "type": "error"
    },
    {
      "inputs": [
        {
          "internalType": "address",
          "name": "approver",
          "type": "address"
        }
      ],
      "name": "ERC721InvalidApprover",
      "type": "error"
    },
    {
      "inputs": [
        {
          "internalType": "address",
          "name": "operator",
          "type": "address"
        }
      ],
      "name": "ERC721InvalidOperator",
      "type": "error"
    },
    {
      "inputs": [
        {
          "internalType": "address",
          "name": "owner",
          "type": "address"
        }
      ],
      "name": "ERC721InvalidOwner",
      "type": "error"
    },
    {
      "inputs": [
        {
          "internalType": "address",
          "name": "receiver",
          "type": "address"
        }
      ],
      "name": "ERC721InvalidReceiver",
      "type": "error"
    },
    {
      "inputs": [
        {
          "internalType": "address",
          "name": "sender",
          "type": "address"
        }
      ],
      "name": "ERC721InvalidSender",
      "type": "error"
    },
    {
      "inputs": [
        {
          "internalType": "uint256",
          "name": "tokenId",
          "type": "uint256"
        }
      ],
      "name": "ERC721NonexistentToken",
      "type": "error"
    },
    {
      "inputs": [
        {
          "internalType": "address",
          "name": "owner",
          "type": "address"
        }
      ],
      "name": "OwnableInvalidOwner",
      "type": "error"
    },
    {
      "inputs": [
        {
          "internalType": "address",
          "name": "account",
          "type": "address"
        }
      ],
      "name": "OwnableUnauthorizedAccount",
      "type": "error"
    },
    {
      "anonymous": false,
      "inputs": [
        {
          "indexed": true,
          "internalType": "address",
          "name": "owner",
          "type": "address"
        },
        {
          "indexed": true,
          "internalType": "address",
          "name": "approved",
          "type": "address"
        },
        {
          "indexed": true,
          "internalType": "uint256",
          "name": "tokenId",
          "type": "uint256"
        }
      ],
      "name": "Approval",
      "type": "event"
    },
    {
      "anonymous": false,
      "inputs": [
        {
          "indexed": true,
          "internalType": "address",
          "name": "owner",
          "type": "address"
        },
        {
          "indexed": true,
          "internalType": "address",
          "name": "operator",
          "type": "address"
        },
        {
          "indexed": false,
          "internalType": "bool",
          "name": "approved",
          "type": "bool"
        }
      ],
      "name": "ApprovalForAll",
      "type": "event"
    },
    {
      "anonymous": false,
      "inputs": [
        {
          "indexed": false,
          "internalType": "uint256",
          "name": "_fromTokenId",
          "type": "uint256"
        },
        {
          "indexed": false,
          "internalType": "uint256",
          "name": "_toTokenId",
          "type": "uint256"
        }
      ],
      "name": "BatchMetadataUpdate",
      "type": "event"
    },
    {
      "anonymous": false,
      "inputs": [
        {
          "indexed": false,
          "internalType": "uint256",
          "name": "_tokenId",
          "type": "uint256"
        }
      ],
      "name": "MetadataUpdate",
      "type": "event"
    },
    {
      "anonymous": false,
      "inputs": [
        {
          "indexed": true,
          "internalType": "address",
          "name": "previousOwner",
          "type": "address"
        },
        {
          "indexed": true,
          "internalType": "address",
          "name": "newOwner",
          "type": "address"
        }
      ],
      "name": "OwnershipTransferred",
      "type": "event"
    },
    {
      "anonymous": false,
      "inputs": [
        {
          "indexed": true,
          "internalType": "address",
          "name": "from",
          "type": "address"
        },
        {
          "indexed": true,
          "internalType": "address",
          "name": "to",
          "type": "address"
        },
        {
          "indexed": true,
          "internalType": "uint256",
          "name": "tokenId",
          "type": "uint256"
        }
      ],
      "name": "Transfer",
      "type": "event"
    },
    {
      "inputs": [
        {
          "internalType": "address",
          "name": "to",
          "type": "address"
        },
        {
          "internalType": "uint256",
          "name": "tokenId",
          "type": "uint256"
        }
      ],
      "name": "approve",
      "outputs": [],
      "stateMutability": "nonpayable",
      "type": "function"
    },
    {
      "inputs": [
        {
          "internalType": "address",
          "name": "owner",
          "type": "address"
        }
      ],
      "name": "balanceOf",
      "outputs": [
        {
          "internalType": "uint256",
          "name": "",
          "type": "uint256"
        }
      ],
      "stateMutability": "view",
      "type": "function"
    },
    {
      "inputs": [
        {
          "internalType": "uint256",
          "name": "tokenId",
          "type": "uint256"
        }
      ],
      "name": "getApproved",
      "outputs": [
        {
          "internalType": "address",
          "name": "",
          "type": "address"
        }
      ],
      "stateMutability": "view",
      "type": "function"
    },
    {
      "inputs": [
        {
          "internalType": "address",
          "name": "owner",
          "type": "address"
        },
        {
          "internalType": "address",
          "name": "operator",
          "type": "address"
        }
      ],
      "name": "isApprovedForAll",
      "outputs": [
        {
          "internalType": "bool",
          "name": "",
          "type": "bool"
        }
      ],
      "stateMutability": "view",
      "type": "function"
    },
    {
      "inputs": [
        {
          "internalType": "address",
          "name": "to",
          "type": "address"
        },
        {
          "internalType": "string",
          "name": "tokenURI",
          "type": "string"
        }
      ],
      "name": "mintNFT",
      "outputs": [
        {
          "internalType": "uint256",
          "name": "",
          "type": "uint256"
        }
      ],
      "stateMutability": "nonpayable",
      "type": "function"
    },
    {
      "inputs": [],
      "name": "name",
      "outputs": [
        {
          "internalType": "string",
          "name": "",
          "type": "string"
        }
      ],
      "stateMutability": "view",
      "type": "function"
    },
    {
      "inputs": [],
      "name": "nextTokenId",
      "outputs": [
        {
          "internalType": "uint256",
          "name": "",
          "type": "uint256"
        }
      ],
      "stateMutability": "view",
      "type": "function"
    },
    {
      "inputs": [],
      "name": "owner",
      "outputs": [
        {
          "internalType": "address",
          "name": "",
          "type": "address"
        }
      ],
      "stateMutability": "view",
      "type": "function"
    },
    {
      "inputs": [
        {
          "internalType": "uint256",
          "name": "tokenId",
          "type": "uint256"
        }
      ],
      "name": "ownerOf",
      "outputs": [
        {
          "internalType": "address",
          "name": "",
          "type": "address"
        }
      ],
      "stateMutability": "view",
      "type": "function"
    },
    {
      "inputs": [],
      "name": "renounceOwnership",
      "outputs": [],
      "stateMutability": "nonpayable",
      "type": "function"
    },
    {
      "inputs": [
        {
          "internalType": "address",
          "name": "from",
          "type": "address"
        },
        {
          "internalType": "address",
          "name": "to",
          "type": "address"
        },
        {
          "internalType": "uint256",
          "name": "tokenId",
          "type": "uint256"
        }
      ],
      "name": "safeTransferFrom",
      "outputs": [],
      "stateMutability": "nonpayable",
      "type": "function"
    },
    {
      "inputs": [
        {
          "internalType": "address",
          "name": "from",
          "type": "address"
        },
        {
          "internalType": "address",
          "name": "to",
          "type": "address"
        },
        {
          "internalType": "uint256",
          "name": "tokenId",
          "type": "uint256"
        },
        {
          "internalType": "bytes",
          "name": "data",
          "type": "bytes"
        }
      ],
      "name": "safeTransferFrom",
      "outputs": [],
      "stateMutability": "nonpayable",
      "type": "function"
    },
    {
      "inputs": [
        {
          "internalType": "address",
          "name": "operator",
          "type": "address"
        },
        {
          "internalType": "bool",
          "name": "approved",
          "type": "bool"
        }
      ],
      "name": "setApprovalForAll",
      "outputs": [],
      "stateMutability": "nonpayable",
      "type": "function"
    },
    {
      "inputs": [
        {
          "internalType": "bytes4",
          "name": "interfaceId",
          "type": "bytes4"
        }
      ],
      "name": "supportsInterface",
      "outputs": [
        {
          "internalType": "bool",
          "name": "",
          "type": "bool"
        }
      ],
      "stateMutability": "view",
      "type": "function"
    },
    {
      "inputs": [],
      "name": "symbol",
      "outputs": [
        {
          "internalType": "string",
          "name": "",
          "type": "string"
        }
      ],
      "stateMutability": "view",
      "type": "function"
    },
    {
      "inputs": [
        {
          "internalType": "uint256",
          "name": "tokenId",
          "type": "uint256"
        }
      ],
      "name": "tokenURI",
      "outputs": [
        {
          "internalType": "string",
          "name": "",
          "type": "string"
        }
      ],
      "stateMutability": "view",
      "type": "function"
    },
    {
      "inputs": [
        {
          "internalType": "address",
          "name": "from",
          "type": "address"
        },
        {
          "internalType": "address",
          "name": "to",
          "type": "address"
        },
        {
          "internalType": "uint256",
          "name": "tokenId",
          "type": "uint256"
        }
      ],
      "name": "transferFrom",
      "outputs": [],
      "stateMutability": "nonpayable",
      "type": "function"
    },
    {
      "inputs": [
        {
          "internalType": "address",
          "name": "newOwner",
          "type": "address"
        }
      ],
      "name": "transferOwnership",
      "outputs": [],
      "stateMutability": "nonpayable",
      "type": "function"
    }
  ],
  "bytecode": "0x608060405234801561001057600080fd5b50604051612de5380380612de583398181016040528101906100329190610382565b8083838160009081610044919061062e565b508060019081610054919061062e565b505050600073ffffffffffffffffffffffffffffffffffffffff168173ffffffffffffffffffffffffffffffffffffffff16036100c95760006040517f1e4fbdf70000000000000000000000000000000000000000000000000000000081526004016100c0919061070f565b60405180910390fd5b6100d8816100e960201b60201c565b50600160088190555050505061072a565b6000600760009054906101000a900473ffffffffffffffffffffffffffffffffffffffff16905081600760006101000a81548173ffffffffffffffffffffffffffffffffffffffff021916908373ffffffffffffffffffffffffffffffffffffffff1602179055508173ffffffffffffffffffffffffffffffffffffffff168173ffffffffffffffffffffffffffffffffffffffff167f8be0079c531659141344cd1fd0a4f28419497f9722a3daafe3b4186f6b6457e060405160405180910390a35050565b6000604051905090565b600080fd5b600080fd5b600080fd5b600080fd5b6000601f19601f8301169050919050565b7f4e487b7100000000000000000000000000000000000000000000000000000000600052604160045260246000fd5b610216826101cd565b810181811067ffffffffffffffff82111715610235576102346101de565b5b80604052505050565b60006102486101af565b9050610254828261020d565b919050565b600067ffffffffffffffff821115610274576102736101de565b5b61027d826101cd565b9050602081019050919050565b60005b838110156102a857808201518184015260208101905061028d565b60008484015250505050565b60006102c76102c284610259565b61023e565b9050828152602081018484840111156102e3576102e26101c8565b5b6102ee84828561028a565b509392505050565b600082601f83011261030b5761030a6101c3565b5b815161031b8482602086016102b4565b91505092915050565b600073ffffffffffffffffffffffffffffffffffffffff82169050919050565b600061034f82610324565b9050919050565b61035f81610344565b811461036a57600080fd5b50565b60008151905061037c81610356565b92915050565b60008060006060848603121561039b5761039a6101b9565b5b600084015167ffffffffffffffff8111156103b9576103b86101be565b5b6103c5868287016102f6565b935050602084015167ffffffffffffffff8111156103e6576103e56101be565b5b6103f2868287016102f6565b92505060406104038682870161036d565b9150509250925092565b600081519050919050565b7f4e487b7100000000000000000000000000000000000000000000000000000000600052602260045260246000fd5b6000600282049050600182168061045f57607f821691505b60208210810361047257610471610418565b5b50919050565b60008190508160005260206000209050919050565b60006020601f8301049050919050565b600082821b905092915050565b6000600883026104da7fffffffffffffffffffffffffffffffffffffffffffffffffffffffffffffffff8261049d565b6104e4868361049d565b95508019841693508086168417925050509392505050565b6000819050919050565b6000819050919050565b600061052b610526610521846104fc565b610506565b6104fc565b9050919050565b6000819050919050565b61054583610510565b61055961055182610532565b8484546104aa565b825550505050565b600090565b61056e610561565b61057981848461053c565b505050565b5b8181101561059d57610592600082610566565b60018101905061057f565b5050565b601f8211156105e2576105b381610478565b6105bc8461048d565b810160208510156105cb578190505b6105df6105d78561048d565b83018261057e565b50505b505050565b600082821c905092915050565b6000610605600019846008026105e7565b1980831691505092915050565b600061061e83836105f4565b9150826002028217905092915050565b6106378261040d565b67ffffffffffffffff8111156106505761064f6101de565b5b61065a8254610447565b6106658282856105a1565b600060209050601f8311600181146106985760008415610686578287015190505b6106908582610612565b8655506106f8565b601f1984166106a686610478565b60005b828110156106ce578489015182556001820191506020850194506020810190506106a9565b868310156106eb57848901516106e7601f8916826105f4565b8355505b6001600288020188555050505b505050505050565b61070981610344565b82525050565b60006020820190506107246000830184610700565b92915050565b6126ac806107396000396000f3fe608060405234801561001057600080fd5b50600436106101165760003560e01c806375794a3c116100a2578063b88d4fde11610071578063b88d4fde146102cd578063c87b56dd146102e9578063e985e9c514610319578063eacabe1414610349578063f2fde38b1461037957610116565b806375794a3c146102575780638da5cb5b1461027557806395d89b4114610293578063a22cb465146102b157610116565b806323b872dd116100e957806323b872dd146101b557806342842e0e146101d15780636352211e146101ed57806370a082311461021d578063715018a61461024d57610116565b806301ffc9a71461011b57806306fdde031461014b578063081812fc14610169578063095ea7b314610199575b600080fd5b61013560048036038101906101309190611b04565b610395565b6040516101429190611b4c565b60405180910390f35b6101536103f6565b6040516101609190611bf7565b60405180910390f35b610183600480360381019061017e9190611c4f565b610488565b6040516101909190611cbd565b60405180910390f35b6101b360048036038101906101ae9190611d04565b6104a4565b005b6101cf60048036038101906101ca9190611d44565b6104ba565b005b6101eb60048036038101906101e69190611d44565b6105bc565b005b61020760048036038101906102029190611c4f565b6105dc565b6040516102149190611cbd565b60405180910390f35b61023760048036038101906102329190611d97565b6105ee565b6040516102449190611dd3565b60405180910390f35b6102556106a8565b005b61025f6106bc565b60405161026c9190611dd3565b60405180910390f35b61027d6106c6565b60405161028a9190611cbd565b60405180910390f35b61029b6106f0565b6040516102a89190611bf7565b60405180910390f35b6102cb60048036038101906102c69190611e1a565b610782565b005b6102e760048036038101906102e29190611f8f565b610798565b005b61030360048036038101906102fe9190611c4f565b6107b5565b6040516103109190611bf7565b60405180910390f35b610333600480360381019061032e9190612012565b6108c8565b6040516103409190611b4c565b60405180910390f35b610363600480360381019061035e91906120f3565b61095c565b6040516103709190611dd3565b60405180910390f35b610393600480360381019061038e9190611d97565b6109a3565b005b6000634906490660e01b7bffffffffffffffffffffffffffffffffffffffffffffffffffffffff1916827bffffffffffffffffffffffffffffffffffffffffffffffffffffffff191614806103ef57506103ee82610a29565b5b9050919050565b6060600080546104059061217e565b80601f01602080910402602001604051908101604052809291908181526020018280546104319061217e565b801561047e5780601f106104535761010080835404028352916020019161047e565b820191906000526020600020905b81548152906001019060200180831161046157829003601f168201915b5050505050905090565b600061049382610b0b565b5061049d82610b93565b9050919050565b6104b682826104b1610bd0565b610bd8565b5050565b600073ffffffffffffffffffffffffffffffffffffffff168273ffffffffffffffffffffffffffffffffffffffff160361052c5760006040517f64a0ae920000000000000000000000000000000000000000000000000000000081526004016105239190611cbd565b60405180910390fd5b6000610540838361053b610bd0565b610bea565b90508373ffffffffffffffffffffffffffffffffffffffff168173ffffffffffffffffffffffffffffffffffffffff16146105b6578382826040517f64283d7b0000000000000000000000000000000000000000000000000000000081526004016105ad939291906121af565b60405180910390fd5b50505050565b6105d783838360405180602001604052806000815250610798565b505050565b60006105e782610b0b565b9050919050565b60008073ffffffffffffffffffffffffffffffffffffffff168273ffffffffffffffffffffffffffffffffffffffff16036106615760006040517f89c62b640000000000000000000000000000000000000000000000000000000081526004016106589190611cbd565b60405180910390fd5b600360008373ffffffffffffffffffffffffffffffffffffffff1673ffffffffffffffffffffffffffffffffffffffff168152602001908152602001600020549050919050565b6106b0610e04565b6106ba6000610e8b565b565b6000600854905090565b6000600760009054906101000a900473ffffffffffffffffffffffffffffffffffffffff16905090565b6060600180546106ff9061217e565b80601f016020809104026020016040519081016040528092919081815260200182805461072b9061217e565b80156107785780601f1061074d57610100808354040283529160200191610778565b820191906000526020600020905b81548152906001019060200180831161075b57829003601f168201915b5050505050905090565b61079461078d610bd0565b8383610f51565b5050565b6107a38484846104ba565b6107af848484846110c0565b50505050565b60606107c082610b0b565b5060006006600084815260200190815260200160002080546107e19061217e565b80601f016020809104026020016040519081016040528092919081815260200182805461080d9061217e565b801561085a5780601f1061082f5761010080835404028352916020019161085a565b820191906000526020600020905b81548152906001019060200180831161083d57829003601f168201915b50505050509050600061086b611277565b905060008151036108805781925050506108c3565b6000825111156108b557808260405160200161089d929190612222565b604051602081830303815290604052925050506108c3565b6108be8461128e565b925050505b919050565b6000600560008473ffffffffffffffffffffffffffffffffffffffff1673ffffffffffffffffffffffffffffffffffffffff16815260200190815260200160002060008373ffffffffffffffffffffffffffffffffffffffff1673ffffffffffffffffffffffffffffffffffffffff16815260200190815260200160002060009054906101000a900460ff16905092915050565b6000610966610e04565b6000600854905061097784826112f7565b6109818184611315565b6008600081548092919061099490612275565b91905055508091505092915050565b6109ab610e04565b600073ffffffffffffffffffffffffffffffffffffffff168173ffffffffffffffffffffffffffffffffffffffff1603610a1d5760006040517f1e4fbdf7000000000000000000000000000000000000000000000000000000008152600401610a149190611cbd565b60405180910390fd5b610a2681610e8b565b50565b60007f80ac58cd000000000000000000000000000000000000000000000000000000007bffffffffffffffffffffffffffffffffffffffffffffffffffffffff1916827bffffffffffffffffffffffffffffffffffffffffffffffffffffffff19161480610af457507f5b5e139f000000000000000000000000000000000000000000000000000000007bffffffffffffffffffffffffffffffffffffffffffffffffffffffff1916827bffffffffffffffffffffffffffffffffffffffffffffffffffffffff1916145b80610b045750610b0382611371565b5b9050919050565b600080610b17836113db565b9050600073ffffffffffffffffffffffffffffffffffffffff168173ffffffffffffffffffffffffffffffffffffffff1603610b8a57826040517f7e273289000000000000000000000000000000000000000000000000000000008152600401610b819190611dd3565b60405180910390fd5b80915050919050565b60006004600083815260200190815260200160002060009054906101000a900473ffffffffffffffffffffffffffffffffffffffff169050919050565b600033905090565b610be58383836001611418565b505050565b600080610bf6846113db565b9050600073ffffffffffffffffffffffffffffffffffffffff168373ffffffffffffffffffffffffffffffffffffffff1614610c3857610c378184866115dd565b5b600073ffffffffffffffffffffffffffffffffffffffff168173ffffffffffffffffffffffffffffffffffffffff1614610cc957610c7a600085600080611418565b6001600360008373ffffffffffffffffffffffffffffffffffffffff1673ffffffffffffffffffffffffffffffffffffffff168152602001908152602001600020600082825403925050819055505b600073ffffffffffffffffffffffffffffffffffffffff168573ffffffffffffffffffffffffffffffffffffffff1614610d4c576001600360008773ffffffffffffffffffffffffffffffffffffffff1673ffffffffffffffffffffffffffffffffffffffff168152602001908152602001600020600082825401925050819055505b846002600086815260200190815260200160002060006101000a81548173ffffffffffffffffffffffffffffffffffffffff021916908373ffffffffffffffffffffffffffffffffffffffff160217905550838573ffffffffffffffffffffffffffffffffffffffff168273ffffffffffffffffffffffffffffffffffffffff167fddf252ad1be2c89b69c2b068fc378daa952ba7f163c4a11628f55a4df523b3ef60405160405180910390a4809150509392505050565b610e0c610bd0565b73ffffffffffffffffffffffffffffffffffffffff16610e2a6106c6565b73ffffffffffffffffffffffffffffffffffffffff1614610e8957610e4d610bd0565b6040517f118cdaa7000000000000000000000000000000000000000000000000000000008152600401610e809190611cbd565b60405180910390fd5b565b6000600760009054906101000a900473ffffffffffffffffffffffffffffffffffffffff16905081600760006101000a81548173ffffffffffffffffffffffffffffffffffffffff021916908373ffffffffffffffffffffffffffffffffffffffff1602179055508173ffffffffffffffffffffffffffffffffffffffff168173ffffffffffffffffffffffffffffffffffffffff167f8be0079c531659141344cd1fd0a4f28419497f9722a3daafe3b4186f6b6457e060405160405180910390a35050565b600073ffffffffffffffffffffffffffffffffffffffff168273ffffffffffffffffffffffffffffffffffffffff1603610fc257816040517f5b08ba18000000000000000000000000000000000000000000000000000000008152600401610fb99190611cbd565b60405180910390fd5b80600560008573ffffffffffffffffffffffffffffffffffffffff1673ffffffffffffffffffffffffffffffffffffffff16815260200190815260200160002060008473ffffffffffffffffffffffffffffffffffffffff1673ffffffffffffffffffffffffffffffffffffffff16815260200190815260200160002060006101000a81548160ff0219169083151502179055508173ffffffffffffffffffffffffffffffffffffffff168373ffffffffffffffffffffffffffffffffffffffff167f17307eab39ab6107e8899845ad3d59bd9653f200f220920489ca2b5937696c31836040516110b39190611b4c565b60405180910390a3505050565b60008373ffffffffffffffffffffffffffffffffffffffff163b1115611271578273ffffffffffffffffffffffffffffffffffffffff1663150b7a02611104610bd0565b8685856040518563ffffffff1660e01b81526004016111269493929190612312565b6020604051808303816000875af192505050801561116257506040513d601f19601f8201168201806040525081019061115f9190612373565b60015b6111e6573d8060008114611192576040519150601f19603f3d011682016040523d82523d6000602084013e611197565b606091505b5060008151036111de57836040517f64a0ae920000000000000000000000000000000000000000000000000000000081526004016111d59190611cbd565b60405180910390fd5b805181602001fd5b63150b7a0260e01b7bffffffffffffffffffffffffffffffffffffffffffffffffffffffff1916817bffffffffffffffffffffffffffffffffffffffffffffffffffffffff19161461126f57836040517f64a0ae920000000000000000000000000000000000000000000000000000000081526004016112669190611cbd565b60405180910390fd5b505b50505050565b606060405180602001604052806000815250905090565b606061129982610b0b565b5060006112a4611277565b905060008151116112c457604051806020016040528060008152506112ef565b806112ce846116a1565b6040516020016112df929190612222565b6040516020818303038152906040525b915050919050565b61131182826040518060200160405280600081525061176f565b5050565b80600660008481526020019081526020016000209081611335919061254c565b507ff8e1a15aba9398e019f0b49df1a4fde98ee17ae345cb5f6b5e2c27f5033e8ce7826040516113659190611dd3565b60405180910390a15050565b60007f01ffc9a7000000000000000000000000000000000000000000000000000000007bffffffffffffffffffffffffffffffffffffffffffffffffffffffff1916827bffffffffffffffffffffffffffffffffffffffffffffffffffffffff1916149050919050565b60006002600083815260200190815260200160002060009054906101000a900473ffffffffffffffffffffffffffffffffffffffff169050919050565b80806114515750600073ffffffffffffffffffffffffffffffffffffffff168273ffffffffffffffffffffffffffffffffffffffff1614155b1561158557600061146184610b0b565b9050600073ffffffffffffffffffffffffffffffffffffffff168373ffffffffffffffffffffffffffffffffffffffff16141580156114cc57508273ffffffffffffffffffffffffffffffffffffffff168173ffffffffffffffffffffffffffffffffffffffff1614155b80156114df57506114dd81846108c8565b155b1561152157826040517fa9fbf51f0000000000000000000000000000000000000000000000000000000081526004016115189190611cbd565b60405180910390fd5b811561158357838573ffffffffffffffffffffffffffffffffffffffff168273ffffffffffffffffffffffffffffffffffffffff167f8c5be1e5ebec7d5bd14f71427d1e84f3dd0314c0f7b2291e5b200ac8c7c3b92560405160405180910390a45b505b836004600085815260200190815260200160002060006101000a81548173ffffffffffffffffffffffffffffffffffffffff021916908373ffffffffffffffffffffffffffffffffffffffff16021790555050505050565b6115e883838361178b565b61169c57600073ffffffffffffffffffffffffffffffffffffffff168373ffffffffffffffffffffffffffffffffffffffff160361165d57806040517f7e2732890000000000000000000000000000000000000000000000000000000081526004016116549190611dd3565b60405180910390fd5b81816040517f177e802f00000000000000000000000000000000000000000000000000000000815260040161169392919061261e565b60405180910390fd5b505050565b6060600060016116b08461184c565b01905060008167ffffffffffffffff8111156116cf576116ce611e64565b5b6040519080825280601f01601f1916602001820160405280156117015781602001600182028036833780820191505090505b509050600082602001820190505b600115611764578080600190039150507f3031323334353637383961626364656600000000000000000000000000000000600a86061a8153600a858161175857611757612647565b5b0494506000850361170f575b819350505050919050565b611779838361199f565b61178660008484846110c0565b505050565b60008073ffffffffffffffffffffffffffffffffffffffff168373ffffffffffffffffffffffffffffffffffffffff161415801561184357508273ffffffffffffffffffffffffffffffffffffffff168473ffffffffffffffffffffffffffffffffffffffff161480611804575061180384846108c8565b5b8061184257508273ffffffffffffffffffffffffffffffffffffffff1661182a83610b93565b73ffffffffffffffffffffffffffffffffffffffff16145b5b90509392505050565b600080600090507a184f03e93ff9f4daa797ed6e38ed64bf6a1f01000000000000000083106118aa577a184f03e93ff9f4daa797ed6e38ed64bf6a1f01000000000000000083816118a05761189f612647565b5b0492506040810190505b6d04ee2d6d415b85acef810000000083106118e7576d04ee2d6d415b85acef810000000083816118dd576118dc612647565b5b0492506020810190505b662386f26fc10000831061191657662386f26fc10000838161190c5761190b612647565b5b0492506010810190505b6305f5e100831061193f576305f5e100838161193557611934612647565b5b0492506008810190505b612710831061196457612710838161195a57611959612647565b5b0492506004810190505b60648310611987576064838161197d5761197c612647565b5b0492506002810190505b600a8310611996576001810190505b80915050919050565b600073ffffffffffffffffffffffffffffffffffffffff168273ffffffffffffffffffffffffffffffffffffffff1603611a115760006040517f64a0ae92000000000000000000000000000000000000000000000000000000008152600401611a089190611cbd565b60405180910390fd5b6000611a1f83836000610bea565b9050600073ffffffffffffffffffffffffffffffffffffffff168173ffffffffffffffffffffffffffffffffffffffff1614611a935760006040517f73c6ac6e000000000000000000000000000000000000000000000000000000008152600401611a8a9190611cbd565b60405180910390fd5b505050565b6000604051905090565b600080fd5b600080fd5b60007fffffffff0000000000000000000000000000000000000000000000000000000082169050919050565b611ae181611aac565b8114611aec57600080fd5b50565b600081359050611afe81611ad8565b92915050565b600060208284031215611b1a57611b19611aa2565b5b6000611b2884828501611aef565b91505092915050565b60008115159050919050565b611b4681611b31565b82525050565b6000602082019050611b616000830184611b3d565b92915050565b600081519050919050565b600082825260208201905092915050565b60005b83811015611ba1578082015181840152602081019050611b86565b60008484015250505050565b6000601f19601f8301169050919050565b6000611bc982611b67565b611bd38185611b72565b9350611be3818560208601611b83565b611bec81611bad565b840191505092915050565b60006020820190508181036000830152611c118184611bbe565b905092915050565b6000819050919050565b611c2c81611c19565b8114611c3757600080fd5b50565b600081359050611c4981611c23565b92915050565b600060208284031215611c6557611c64611aa2565b5b6000611c7384828501611c3a565b91505092915050565b600073ffffffffffffffffffffffffffffffffffffffff82169050919050565b6000611ca782611c7c565b9050919050565b611cb781611c9c565b82525050565b6000602082019050611cd26000830184611cae565b92915050565b611ce181611c9c565b8114611cec57600080fd5b50565b600081359050611cfe81611cd8565b92915050565b60008060408385031215611d1b57611d1a611aa2565b5b6000611d2985828601611cef565b9250506020611d3a85828601611c3a565b9150509250929050565b600080600060608486031215611d5d57611d5c611aa2565b5b6000611d6b86828701611cef565b9350506020611d7c86828701611cef565b9250506040611d8d86828701611c3a565b9150509250925092565b600060208284031215611dad57611dac611aa2565b5b6000611dbb84828501611cef565b91505092915050565b611dcd81611c19565b82525050565b6000602082019050611de86000830184611dc4565b92915050565b611df781611b31565b8114611e0257600080fd5b50565b600081359050611e1481611dee565b92915050565b60008060408385031215611e3157611e30611aa2565b5b6000611e3f85828601611cef565b9250506020611e5085828601611e05565b9150509250929050565b600080fd5b600080fd5b7f4e487b7100000000000000000000000000000000000000000000000000000000600052604160045260246000fd5b611e9c82611bad565b810181811067ffffffffffffffff82111715611ebb57611eba611e64565b5b80604052505050565b6000611ece611a98565b9050611eda8282611e93565b919050565b600067ffffffffffffffff821115611efa57611ef9611e64565b5b611f0382611bad565b9050602081019050919050565b82818337600083830152505050565b6000611f32611f2d84611edf565b611ec4565b905082815260208101848484011115611f4e57611f4d611e5f565b5b611f59848285611f10565b509392505050565b600082601f830112611f7657611f75611e5a565b5b8135611f86848260208601611f1f565b91505092915050565b60008060008060808587031215611fa957611fa8611aa2565b5b6000611fb787828801611cef565b9450506020611fc887828801611cef565b9350506040611fd987828801611c3a565b925050606085013567ffffffffffffffff811115611ffa57611ff9611aa7565b5b61200687828801611f61565b91505092959194509250565b6000806040838503121561202957612028611aa2565b5b600061203785828601611cef565b925050602061204885828601611cef565b9150509250929050565b600067ffffffffffffffff82111561206d5761206c611e64565b5b61207682611bad565b9050602081019050919050565b600061209661209184612052565b611ec4565b9050828152602081018484840111156120b2576120b1611e5f565b5b6120bd848285611f10565b509392505050565b600082601f8301126120da576120d9611e5a565b5b81356120ea848260208601612083565b91505092915050565b6000806040838503121561210a57612109611aa2565b5b600061211885828601611cef565b925050602083013567ffffffffffffffff81111561213957612138611aa7565b5b612145858286016120c5565b9150509250929050565b7f4e487b7100000000000000000000000000000000000000000000000000000000600052602260045260246000fd5b6000600282049050600182168061219657607f821691505b6020821081036121a9576121a861214f565b5b50919050565b60006060820190506121c46000830186611cae565b6121d16020830185611dc4565b6121de6040830184611cae565b949350505050565b600081905092915050565b60006121fc82611b67565b61220681856121e6565b9350612216818560208601611b83565b80840191505092915050565b600061222e82856121f1565b915061223a82846121f1565b91508190509392505050565b7f4e487b7100000000000000000000000000000000000000000000000000000000600052601160045260246000fd5b600061228082611c19565b91507fffffffffffffffffffffffffffffffffffffffffffffffffffffffffffffffff82036122b2576122b1612246565b5b600182019050919050565b600081519050919050565b600082825260208201905092915050565b60006122e4826122bd565b6122ee81856122c8565b93506122fe818560208601611b83565b61230781611bad565b840191505092915050565b60006080820190506123276000830187611cae565b6123346020830186611cae565b6123416040830185611dc4565b818103606083015261235381846122d9565b905095945050505050565b60008151905061236d81611ad8565b92915050565b60006020828403121561238957612388611aa2565b5b60006123978482850161235e565b91505092915050565b60008190508160005260206000209050919050565b60006020601f8301049050919050565b600082821b905092915050565b6000600883026124027fffffffffffffffffffffffffffffffffffffffffffffffffffffffffffffffff826123c5565b61240c86836123c5565b95508019841693508086168417925050509392505050565b6000819050919050565b600061244961244461243f84611c19565b612424565b611c19565b9050919050565b6000819050919050565b6124638361242e565b61247761246f82612450565b8484546123d2565b825550505050565b600090565b61248c61247f565b61249781848461245a565b505050565b5b818110156124bb576124b0600082612484565b60018101905061249d565b5050565b601f821115612500576124d1816123a0565b6124da846123b5565b810160208510156124e9578190505b6124fd6124f5856123b5565b83018261249c565b50505b505050565b600082821c905092915050565b600061252360001984600802612505565b1980831691505092915050565b600061253c8383612512565b9150826002028217905092915050565b61255582611b67565b67ffffffffffffffff81111561256e5761256d611e64565b5b612578825461217e565b6125838282856124bf565b600060209050601f8311600181146125b657600084156125a4578287015190505b6125ae8582612530565b865550612616565b601f1984166125c4866123a0565b60005b828110156125ec578489015182556001820191506020850194506020810190506125c7565b868310156126095784890151612605601f891682612512565b8355505b6001600288020188555050505b505050505050565b60006040820190506126336000830185611cae565b6126406020830184611dc4565b9392505050565b7f4e487b7100000000000000000000000000000000000000000000000000000000600052601260045260246000fdfea26469706673582212203a86993ed647160cf2654e7904407378dcda2c8cc158185cd446d3d0a7066a5c64736f6c634300081a0033",
  "linkReferences": {},
  "deployedLinkReferences": {}
}