{
  "_format": "hh-sol-artifact-1",
  "contractName": "NftFactory",
  "sourceName": "contracts/NftFactory.sol",
  "abi": [
    {
      "anonymous": false,
      "inputs": [
        {
          "indexed": true,
          "internalType": "address",
          "name": "tokenAddress",
          "type": "address"
        },
        {
          "indexed": true,
          "internalType": "address",
          "name": "to",
          "type": "address"
        },
        {
          "indexed": true,
          "internalType": "uint256",
          "name": "tokenId",
          "type": "uint256"
        },
        {
          "indexed": false,
          "internalType": "string",
          "name": "tokenURI",
          "type": "string"
        }
      ],
      "name": "NFTMinted",
      "type": "event"
    },
    {
      "anonymous": false,
      "inputs": [
        {
          "indexed": false,
          "internalType": "address",
          "name": "tokenAddress",
          "type": "address"
        }
      ],
      "name": "TokenCreated",
      "type": "event"
    },
    {
      "inputs": [
        {
          "internalType": "string",
          "name": "name",
          "type": "string"
        },
        {
          "internalType": "string",
          "name": "symbol",
          "type": "string"
        }
      ],
      "name": "deployToken",
      "outputs": [
        {
          "internalType": "address",
          "name": "",
          "type": "address"
        }
      ],
      "stateMutability": "nonpayable",
      "type": "function"
    },
    {
      "inputs": [
        {
          "internalType": "address",
          "name": "tokenAddress",
          "type": "address"
        },
        {
          "internalType": "address",
          "name": "to",
          "type": "address"
        },
        {
          "internalType": "string",
          "name": "tokenURI",
          "type": "string"
        }
      ],
      "name": "mintNFT",
      "outputs": [
        {
          "internalType": "bool",
          "name": "",
          "type": "bool"
        }
      ],
      "stateMutability": "nonpayable",
      "type": "function"
    }
  ],
  "bytecode": "0x6080604052348015600f57600080fd5b506134f18061001f6000396000f3fe608060405234801561001057600080fd5b50600436106100365760003560e01c80631d12b9381461003b5780637c818f541461006b575b600080fd5b610055600480360381019061005091906103d3565b61009b565b604051610062919061048c565b60405180910390f35b610085600480360381019061008091906104d3565b610117565b604051610092919061055d565b60405180910390f35b60008083836040516100ac9061026c565b6100b79291906105f7565b604051809103906000f0801580156100d3573d6000803e3d6000fd5b5090507f2e2b3f61b70d2d131b2a807371103cc98d51adcaa5e9a8f9c32658ad8426e74e81604051610105919061048c565b60405180910390a18091505092915050565b6000808490508073ffffffffffffffffffffffffffffffffffffffff16637c818f548686866040518463ffffffff1660e01b815260040161015a9392919061062e565b600060405180830381600087803b15801561017457600080fd5b505af1158015610188573d6000803e3d6000fd5b505050508073ffffffffffffffffffffffffffffffffffffffff166375794a3c6040518163ffffffff1660e01b8152600401602060405180830381865afa1580156101d7573d6000803e3d6000fd5b505050506040513d601f19601f820116820180604052508101906101fb91906106a2565b8473ffffffffffffffffffffffffffffffffffffffff168673ffffffffffffffffffffffffffffffffffffffff167f62e892e3122007df811ddcdf33dc70fd7c6c1d0301fba644e97cbbcdb71c88a98660405161025891906106cf565b60405180910390a460019150509392505050565b612dca806106f283390190565b6000604051905090565b600080fd5b600080fd5b600080fd5b600080fd5b6000601f19601f8301169050919050565b7f4e487b7100000000000000000000000000000000000000000000000000000000600052604160045260246000fd5b6102e082610297565b810181811067ffffffffffffffff821117156102ff576102fe6102a8565b5b80604052505050565b6000610312610279565b905061031e82826102d7565b919050565b600067ffffffffffffffff82111561033e5761033d6102a8565b5b61034782610297565b9050602081019050919050565b82818337600083830152505050565b600061037661037184610323565b610308565b90508281526020810184848401111561039257610391610292565b5b61039d848285610354565b509392505050565b600082601f8301126103ba576103b961028d565b5b81356103ca848260208601610363565b91505092915050565b600080604083850312156103ea576103e9610283565b5b600083013567ffffffffffffffff81111561040857610407610288565b5b610414858286016103a5565b925050602083013567ffffffffffffffff81111561043557610434610288565b5b610441858286016103a5565b9150509250929050565b600073ffffffffffffffffffffffffffffffffffffffff82169050919050565b60006104768261044b565b9050919050565b6104868161046b565b82525050565b60006020820190506104a1600083018461047d565b92915050565b6104b08161046b565b81146104bb57600080fd5b50565b6000813590506104cd816104a7565b92915050565b6000806000606084860312156104ec576104eb610283565b5b60006104fa868287016104be565b935050602061050b868287016104be565b925050604084013567ffffffffffffffff81111561052c5761052b610288565b5b610538868287016103a5565b9150509250925092565b60008115159050919050565b61055781610542565b82525050565b6000602082019050610572600083018461054e565b92915050565b600081519050919050565b600082825260208201905092915050565b60005b838110156105b2578082015181840152602081019050610597565b60008484015250505050565b60006105c982610578565b6105d38185610583565b93506105e3818560208601610594565b6105ec81610297565b840191505092915050565b6000604082019050818103600083015261061181856105be565b9050818103602083015261062581846105be565b90509392505050565b6000606082019050610643600083018661047d565b610650602083018561047d565b818103604083015261066281846105be565b9050949350505050565b6000819050919050565b61067f8161066c565b811461068a57600080fd5b50565b60008151905061069c81610676565b92915050565b6000602082840312156106b8576106b7610283565b5b60006106c68482850161068d565b91505092915050565b600060208201905081810360008301526106e981846105be565b90509291505056fe608060405234801561001057600080fd5b50604051612dca380380612dca83398181016040528101906100329190610323565b338282816000908161004491906105bc565b50806001908161005491906105bc565b505050600073ffffffffffffffffffffffffffffffffffffffff168173ffffffffffffffffffffffffffffffffffffffff16036100c95760006040517f1e4fbdf70000000000000000000000000000000000000000000000000000000081526004016100c091906106cf565b60405180910390fd5b6100d8816100e860201b60201c565b50600060088190555050506106ea565b6000600760009054906101000a900473ffffffffffffffffffffffffffffffffffffffff16905081600760006101000a81548173ffffffffffffffffffffffffffffffffffffffff021916908373ffffffffffffffffffffffffffffffffffffffff1602179055508173ffffffffffffffffffffffffffffffffffffffff168173ffffffffffffffffffffffffffffffffffffffff167f8be0079c531659141344cd1fd0a4f28419497f9722a3daafe3b4186f6b6457e060405160405180910390a35050565b6000604051905090565b600080fd5b600080fd5b600080fd5b600080fd5b6000601f19601f8301169050919050565b7f4e487b7100000000000000000000000000000000000000000000000000000000600052604160045260246000fd5b610215826101cc565b810181811067ffffffffffffffff82111715610234576102336101dd565b5b80604052505050565b60006102476101ae565b9050610253828261020c565b919050565b600067ffffffffffffffff821115610273576102726101dd565b5b61027c826101cc565b9050602081019050919050565b60005b838110156102a757808201518184015260208101905061028c565b60008484015250505050565b60006102c66102c184610258565b61023d565b9050828152602081018484840111156102e2576102e16101c7565b5b6102ed848285610289565b509392505050565b600082601f83011261030a576103096101c2565b5b815161031a8482602086016102b3565b91505092915050565b6000806040838503121561033a576103396101b8565b5b600083015167ffffffffffffffff811115610358576103576101bd565b5b610364858286016102f5565b925050602083015167ffffffffffffffff811115610385576103846101bd565b5b610391858286016102f5565b9150509250929050565b600081519050919050565b7f4e487b7100000000000000000000000000000000000000000000000000000000600052602260045260246000fd5b600060028204905060018216806103ed57607f821691505b602082108103610400576103ff6103a6565b5b50919050565b60008190508160005260206000209050919050565b60006020601f8301049050919050565b600082821b905092915050565b6000600883026104687fffffffffffffffffffffffffffffffffffffffffffffffffffffffffffffffff8261042b565b610472868361042b565b95508019841693508086168417925050509392505050565b6000819050919050565b6000819050919050565b60006104b96104b46104af8461048a565b610494565b61048a565b9050919050565b6000819050919050565b6104d38361049e565b6104e76104df826104c0565b848454610438565b825550505050565b600090565b6104fc6104ef565b6105078184846104ca565b505050565b5b8181101561052b576105206000826104f4565b60018101905061050d565b5050565b601f8211156105705761054181610406565b61054a8461041b565b81016020851015610559578190505b61056d6105658561041b565b83018261050c565b50505b505050565b600082821c905092915050565b600061059360001984600802610575565b1980831691505092915050565b60006105ac8383610582565b9150826002028217905092915050565b6105c58261039b565b67ffffffffffffffff8111156105de576105dd6101dd565b5b6105e882546103d5565b6105f382828561052f565b600060209050601f8311600181146106265760008415610614578287015190505b61061e85826105a0565b865550610686565b601f19841661063486610406565b60005b8281101561065c57848901518255600182019150602085019450602081019050610637565b868310156106795784890151610675601f891682610582565b8355505b6001600288020188555050505b505050505050565b600073ffffffffffffffffffffffffffffffffffffffff82169050919050565b60006106b98261068e565b9050919050565b6106c9816106ae565b82525050565b60006020820190506106e460008301846106c0565b92915050565b6126d1806106f96000396000f3fe608060405234801561001057600080fd5b50600436106101165760003560e01c806375794a3c116100a2578063a22cb46511610071578063a22cb465146102cd578063b88d4fde146102e9578063c87b56dd14610305578063e985e9c514610335578063f2fde38b1461036557610116565b806375794a3c146102575780637c818f54146102755780638da5cb5b1461029157806395d89b41146102af57610116565b806323b872dd116100e957806323b872dd146101b557806342842e0e146101d15780636352211e146101ed57806370a082311461021d578063715018a61461024d57610116565b806301ffc9a71461011b57806306fdde031461014b578063081812fc14610169578063095ea7b314610199575b600080fd5b61013560048036038101906101309190611b16565b610381565b6040516101429190611b5e565b60405180910390f35b6101536103e2565b6040516101609190611c09565b60405180910390f35b610183600480360381019061017e9190611c61565b610474565b6040516101909190611ccf565b60405180910390f35b6101b360048036038101906101ae9190611d16565b610490565b005b6101cf60048036038101906101ca9190611d56565b6104a6565b005b6101eb60048036038101906101e69190611d56565b6105a8565b005b61020760048036038101906102029190611c61565b6105c8565b6040516102149190611ccf565b60405180910390f35b61023760048036038101906102329190611da9565b6105da565b6040516102449190611de5565b60405180910390f35b610255610694565b005b61025f6106a8565b60405161026c9190611de5565b60405180910390f35b61028f600480360381019061028a9190611f35565b6106b2565b005b610299610759565b6040516102a69190611ccf565b60405180910390f35b6102b7610783565b6040516102c49190611c09565b60405180910390f35b6102e760048036038101906102e29190611fd0565b610815565b005b61030360048036038101906102fe91906120b1565b61082b565b005b61031f600480360381019061031a9190611c61565b610848565b60405161032c9190611c09565b60405180910390f35b61034f600480360381019061034a9190612134565b61095b565b60405161035c9190611b5e565b60405180910390f35b61037f600480360381019061037a9190611da9565b6109ef565b005b6000634906490660e01b7bffffffffffffffffffffffffffffffffffffffffffffffffffffffff1916827bffffffffffffffffffffffffffffffffffffffffffffffffffffffff191614806103db57506103da82610a75565b5b9050919050565b6060600080546103f1906121a3565b80601f016020809104026020016040519081016040528092919081815260200182805461041d906121a3565b801561046a5780601f1061043f5761010080835404028352916020019161046a565b820191906000526020600020905b81548152906001019060200180831161044d57829003601f168201915b5050505050905090565b600061047f82610b57565b5061048982610bdf565b9050919050565b6104a2828261049d610c1c565b610c24565b5050565b600073ffffffffffffffffffffffffffffffffffffffff168273ffffffffffffffffffffffffffffffffffffffff16036105185760006040517f64a0ae9200000000000000000000000000000000000000000000000000000000815260040161050f9190611ccf565b60405180910390fd5b600061052c8383610527610c1c565b610c36565b90508373ffffffffffffffffffffffffffffffffffffffff168173ffffffffffffffffffffffffffffffffffffffff16146105a2578382826040517f64283d7b000000000000000000000000000000000000000000000000000000008152600401610599939291906121d4565b60405180910390fd5b50505050565b6105c38383836040518060200160405280600081525061082b565b505050565b60006105d382610b57565b9050919050565b60008073ffffffffffffffffffffffffffffffffffffffff168273ffffffffffffffffffffffffffffffffffffffff160361064d5760006040517f89c62b640000000000000000000000000000000000000000000000000000000081526004016106449190611ccf565b60405180910390fd5b600360008373ffffffffffffffffffffffffffffffffffffffff1673ffffffffffffffffffffffffffffffffffffffff168152602001908152602001600020549050919050565b61069c610e50565b6106a66000610ed7565b565b6000600854905090565b6106ba610e50565b60006008549050600860008154809291906106d49061223a565b91905055506106e38382610f9d565b6106ed8183611096565b808373ffffffffffffffffffffffffffffffffffffffff168573ffffffffffffffffffffffffffffffffffffffff167f62e892e3122007df811ddcdf33dc70fd7c6c1d0301fba644e97cbbcdb71c88a98560405161074b9190611c09565b60405180910390a450505050565b6000600760009054906101000a900473ffffffffffffffffffffffffffffffffffffffff16905090565b606060018054610792906121a3565b80601f01602080910402602001604051908101604052809291908181526020018280546107be906121a3565b801561080b5780601f106107e05761010080835404028352916020019161080b565b820191906000526020600020905b8154815290600101906020018083116107ee57829003601f168201915b5050505050905090565b610827610820610c1c565b83836110f2565b5050565b6108368484846104a6565b61084284848484611261565b50505050565b606061085382610b57565b506000600660008481526020019081526020016000208054610874906121a3565b80601f01602080910402602001604051908101604052809291908181526020018280546108a0906121a3565b80156108ed5780601f106108c2576101008083540402835291602001916108ed565b820191906000526020600020905b8154815290600101906020018083116108d057829003601f168201915b5050505050905060006108fe611418565b90506000815103610913578192505050610956565b6000825111156109485780826040516020016109309291906122be565b60405160208183030381529060405292505050610956565b6109518461142f565b925050505b919050565b6000600560008473ffffffffffffffffffffffffffffffffffffffff1673ffffffffffffffffffffffffffffffffffffffff16815260200190815260200160002060008373ffffffffffffffffffffffffffffffffffffffff1673ffffffffffffffffffffffffffffffffffffffff16815260200190815260200160002060009054906101000a900460ff16905092915050565b6109f7610e50565b600073ffffffffffffffffffffffffffffffffffffffff168173ffffffffffffffffffffffffffffffffffffffff1603610a695760006040517f1e4fbdf7000000000000000000000000000000000000000000000000000000008152600401610a609190611ccf565b60405180910390fd5b610a7281610ed7565b50565b60007f80ac58cd000000000000000000000000000000000000000000000000000000007bffffffffffffffffffffffffffffffffffffffffffffffffffffffff1916827bffffffffffffffffffffffffffffffffffffffffffffffffffffffff19161480610b4057507f5b5e139f000000000000000000000000000000000000000000000000000000007bffffffffffffffffffffffffffffffffffffffffffffffffffffffff1916827bffffffffffffffffffffffffffffffffffffffffffffffffffffffff1916145b80610b505750610b4f82611498565b5b9050919050565b600080610b6383611502565b9050600073ffffffffffffffffffffffffffffffffffffffff168173ffffffffffffffffffffffffffffffffffffffff1603610bd657826040517f7e273289000000000000000000000000000000000000000000000000000000008152600401610bcd9190611de5565b60405180910390fd5b80915050919050565b60006004600083815260200190815260200160002060009054906101000a900473ffffffffffffffffffffffffffffffffffffffff169050919050565b600033905090565b610c31838383600161153f565b505050565b600080610c4284611502565b9050600073ffffffffffffffffffffffffffffffffffffffff168373ffffffffffffffffffffffffffffffffffffffff1614610c8457610c83818486611704565b5b600073ffffffffffffffffffffffffffffffffffffffff168173ffffffffffffffffffffffffffffffffffffffff1614610d1557610cc660008560008061153f565b6001600360008373ffffffffffffffffffffffffffffffffffffffff1673ffffffffffffffffffffffffffffffffffffffff168152602001908152602001600020600082825403925050819055505b600073ffffffffffffffffffffffffffffffffffffffff168573ffffffffffffffffffffffffffffffffffffffff1614610d98576001600360008773ffffffffffffffffffffffffffffffffffffffff1673ffffffffffffffffffffffffffffffffffffffff168152602001908152602001600020600082825401925050819055505b846002600086815260200190815260200160002060006101000a81548173ffffffffffffffffffffffffffffffffffffffff021916908373ffffffffffffffffffffffffffffffffffffffff160217905550838573ffffffffffffffffffffffffffffffffffffffff168273ffffffffffffffffffffffffffffffffffffffff167fddf252ad1be2c89b69c2b068fc378daa952ba7f163c4a11628f55a4df523b3ef60405160405180910390a4809150509392505050565b610e58610c1c565b73ffffffffffffffffffffffffffffffffffffffff16610e76610759565b73ffffffffffffffffffffffffffffffffffffffff1614610ed557610e99610c1c565b6040517f118cdaa7000000000000000000000000000000000000000000000000000000008152600401610ecc9190611ccf565b60405180910390fd5b565b6000600760009054906101000a900473ffffffffffffffffffffffffffffffffffffffff16905081600760006101000a81548173ffffffffffffffffffffffffffffffffffffffff021916908373ffffffffffffffffffffffffffffffffffffffff1602179055508173ffffffffffffffffffffffffffffffffffffffff168173ffffffffffffffffffffffffffffffffffffffff167f8be0079c531659141344cd1fd0a4f28419497f9722a3daafe3b4186f6b6457e060405160405180910390a35050565b600073ffffffffffffffffffffffffffffffffffffffff168273ffffffffffffffffffffffffffffffffffffffff160361100f5760006040517f64a0ae920000000000000000000000000000000000000000000000000000000081526004016110069190611ccf565b60405180910390fd5b600061101d83836000610c36565b9050600073ffffffffffffffffffffffffffffffffffffffff168173ffffffffffffffffffffffffffffffffffffffff16146110915760006040517f73c6ac6e0000000000000000000000000000000000000000000000000000000081526004016110889190611ccf565b60405180910390fd5b505050565b806006600084815260200190815260200160002090816110b6919061248e565b507ff8e1a15aba9398e019f0b49df1a4fde98ee17ae345cb5f6b5e2c27f5033e8ce7826040516110e69190611de5565b60405180910390a15050565b600073ffffffffffffffffffffffffffffffffffffffff168273ffffffffffffffffffffffffffffffffffffffff160361116357816040517f5b08ba1800000000000000000000000000000000000000000000000000000000815260040161115a9190611ccf565b60405180910390fd5b80600560008573ffffffffffffffffffffffffffffffffffffffff1673ffffffffffffffffffffffffffffffffffffffff16815260200190815260200160002060008473ffffffffffffffffffffffffffffffffffffffff1673ffffffffffffffffffffffffffffffffffffffff16815260200190815260200160002060006101000a81548160ff0219169083151502179055508173ffffffffffffffffffffffffffffffffffffffff168373ffffffffffffffffffffffffffffffffffffffff167f17307eab39ab6107e8899845ad3d59bd9653f200f220920489ca2b5937696c31836040516112549190611b5e565b60405180910390a3505050565b60008373ffffffffffffffffffffffffffffffffffffffff163b1115611412578273ffffffffffffffffffffffffffffffffffffffff1663150b7a026112a5610c1c565b8685856040518563ffffffff1660e01b81526004016112c794939291906125b5565b6020604051808303816000875af192505050801561130357506040513d601f19601f820116820180604052508101906113009190612616565b60015b611387573d8060008114611333576040519150601f19603f3d011682016040523d82523d6000602084013e611338565b606091505b50600081510361137f57836040517f64a0ae920000000000000000000000000000000000000000000000000000000081526004016113769190611ccf565b60405180910390fd5b805181602001fd5b63150b7a0260e01b7bffffffffffffffffffffffffffffffffffffffffffffffffffffffff1916817bffffffffffffffffffffffffffffffffffffffffffffffffffffffff19161461141057836040517f64a0ae920000000000000000000000000000000000000000000000000000000081526004016114079190611ccf565b60405180910390fd5b505b50505050565b606060405180602001604052806000815250905090565b606061143a82610b57565b506000611445611418565b905060008151116114655760405180602001604052806000815250611490565b8061146f846117c8565b6040516020016114809291906122be565b6040516020818303038152906040525b915050919050565b60007f01ffc9a7000000000000000000000000000000000000000000000000000000007bffffffffffffffffffffffffffffffffffffffffffffffffffffffff1916827bffffffffffffffffffffffffffffffffffffffffffffffffffffffff1916149050919050565b60006002600083815260200190815260200160002060009054906101000a900473ffffffffffffffffffffffffffffffffffffffff169050919050565b80806115785750600073ffffffffffffffffffffffffffffffffffffffff168273ffffffffffffffffffffffffffffffffffffffff1614155b156116ac57600061158884610b57565b9050600073ffffffffffffffffffffffffffffffffffffffff168373ffffffffffffffffffffffffffffffffffffffff16141580156115f357508273ffffffffffffffffffffffffffffffffffffffff168173ffffffffffffffffffffffffffffffffffffffff1614155b80156116065750611604818461095b565b155b1561164857826040517fa9fbf51f00000000000000000000000000000000000000000000000000000000815260040161163f9190611ccf565b60405180910390fd5b81156116aa57838573ffffffffffffffffffffffffffffffffffffffff168273ffffffffffffffffffffffffffffffffffffffff167f8c5be1e5ebec7d5bd14f71427d1e84f3dd0314c0f7b2291e5b200ac8c7c3b92560405160405180910390a45b505b836004600085815260200190815260200160002060006101000a81548173ffffffffffffffffffffffffffffffffffffffff021916908373ffffffffffffffffffffffffffffffffffffffff16021790555050505050565b61170f838383611896565b6117c357600073ffffffffffffffffffffffffffffffffffffffff168373ffffffffffffffffffffffffffffffffffffffff160361178457806040517f7e27328900000000000000000000000000000000000000000000000000000000815260040161177b9190611de5565b60405180910390fd5b81816040517f177e802f0000000000000000000000000000000000000000000000000000000081526004016117ba929190612643565b60405180910390fd5b505050565b6060600060016117d784611957565b01905060008167ffffffffffffffff8111156117f6576117f5611e0a565b5b6040519080825280601f01601f1916602001820160405280156118285781602001600182028036833780820191505090505b509050600082602001820190505b60011561188b578080600190039150507f3031323334353637383961626364656600000000000000000000000000000000600a86061a8153600a858161187f5761187e61266c565b5b04945060008503611836575b819350505050919050565b60008073ffffffffffffffffffffffffffffffffffffffff168373ffffffffffffffffffffffffffffffffffffffff161415801561194e57508273ffffffffffffffffffffffffffffffffffffffff168473ffffffffffffffffffffffffffffffffffffffff16148061190f575061190e848461095b565b5b8061194d57508273ffffffffffffffffffffffffffffffffffffffff1661193583610bdf565b73ffffffffffffffffffffffffffffffffffffffff16145b5b90509392505050565b600080600090507a184f03e93ff9f4daa797ed6e38ed64bf6a1f01000000000000000083106119b5577a184f03e93ff9f4daa797ed6e38ed64bf6a1f01000000000000000083816119ab576119aa61266c565b5b0492506040810190505b6d04ee2d6d415b85acef810000000083106119f2576d04ee2d6d415b85acef810000000083816119e8576119e761266c565b5b0492506020810190505b662386f26fc100008310611a2157662386f26fc100008381611a1757611a1661266c565b5b0492506010810190505b6305f5e1008310611a4a576305f5e1008381611a4057611a3f61266c565b5b0492506008810190505b6127108310611a6f576127108381611a6557611a6461266c565b5b0492506004810190505b60648310611a925760648381611a8857611a8761266c565b5b0492506002810190505b600a8310611aa1576001810190505b80915050919050565b6000604051905090565b600080fd5b600080fd5b60007fffffffff0000000000000000000000000000000000000000000000000000000082169050919050565b611af381611abe565b8114611afe57600080fd5b50565b600081359050611b1081611aea565b92915050565b600060208284031215611b2c57611b2b611ab4565b5b6000611b3a84828501611b01565b91505092915050565b60008115159050919050565b611b5881611b43565b82525050565b6000602082019050611b736000830184611b4f565b92915050565b600081519050919050565b600082825260208201905092915050565b60005b83811015611bb3578082015181840152602081019050611b98565b60008484015250505050565b6000601f19601f8301169050919050565b6000611bdb82611b79565b611be58185611b84565b9350611bf5818560208601611b95565b611bfe81611bbf565b840191505092915050565b60006020820190508181036000830152611c238184611bd0565b905092915050565b6000819050919050565b611c3e81611c2b565b8114611c4957600080fd5b50565b600081359050611c5b81611c35565b92915050565b600060208284031215611c7757611c76611ab4565b5b6000611c8584828501611c4c565b91505092915050565b600073ffffffffffffffffffffffffffffffffffffffff82169050919050565b6000611cb982611c8e565b9050919050565b611cc981611cae565b82525050565b6000602082019050611ce46000830184611cc0565b92915050565b611cf381611cae565b8114611cfe57600080fd5b50565b600081359050611d1081611cea565b92915050565b60008060408385031215611d2d57611d2c611ab4565b5b6000611d3b85828601611d01565b9250506020611d4c85828601611c4c565b9150509250929050565b600080600060608486031215611d6f57611d6e611ab4565b5b6000611d7d86828701611d01565b9350506020611d8e86828701611d01565b9250506040611d9f86828701611c4c565b9150509250925092565b600060208284031215611dbf57611dbe611ab4565b5b6000611dcd84828501611d01565b91505092915050565b611ddf81611c2b565b82525050565b6000602082019050611dfa6000830184611dd6565b92915050565b600080fd5b600080fd5b7f4e487b7100000000000000000000000000000000000000000000000000000000600052604160045260246000fd5b611e4282611bbf565b810181811067ffffffffffffffff82111715611e6157611e60611e0a565b5b80604052505050565b6000611e74611aaa565b9050611e808282611e39565b919050565b600067ffffffffffffffff821115611ea057611e9f611e0a565b5b611ea982611bbf565b9050602081019050919050565b82818337600083830152505050565b6000611ed8611ed384611e85565b611e6a565b905082815260208101848484011115611ef457611ef3611e05565b5b611eff848285611eb6565b509392505050565b600082601f830112611f1c57611f1b611e00565b5b8135611f2c848260208601611ec5565b91505092915050565b600080600060608486031215611f4e57611f4d611ab4565b5b6000611f5c86828701611d01565b9350506020611f6d86828701611d01565b925050604084013567ffffffffffffffff811115611f8e57611f8d611ab9565b5b611f9a86828701611f07565b9150509250925092565b611fad81611b43565b8114611fb857600080fd5b50565b600081359050611fca81611fa4565b92915050565b60008060408385031215611fe757611fe6611ab4565b5b6000611ff585828601611d01565b925050602061200685828601611fbb565b9150509250929050565b600067ffffffffffffffff82111561202b5761202a611e0a565b5b61203482611bbf565b9050602081019050919050565b600061205461204f84612010565b611e6a565b9050828152602081018484840111156120705761206f611e05565b5b61207b848285611eb6565b509392505050565b600082601f83011261209857612097611e00565b5b81356120a8848260208601612041565b91505092915050565b600080600080608085870312156120cb576120ca611ab4565b5b60006120d987828801611d01565b94505060206120ea87828801611d01565b93505060406120fb87828801611c4c565b925050606085013567ffffffffffffffff81111561211c5761211b611ab9565b5b61212887828801612083565b91505092959194509250565b6000806040838503121561214b5761214a611ab4565b5b600061215985828601611d01565b925050602061216a85828601611d01565b9150509250929050565b7f4e487b7100000000000000000000000000000000000000000000000000000000600052602260045260246000fd5b600060028204905060018216806121bb57607f821691505b6020821081036121ce576121cd612174565b5b50919050565b60006060820190506121e96000830186611cc0565b6121f66020830185611dd6565b6122036040830184611cc0565b949350505050565b7f4e487b7100000000000000000000000000000000000000000000000000000000600052601160045260246000fd5b600061224582611c2b565b91507fffffffffffffffffffffffffffffffffffffffffffffffffffffffffffffffff82036122775761227661220b565b5b600182019050919050565b600081905092915050565b600061229882611b79565b6122a28185612282565b93506122b2818560208601611b95565b80840191505092915050565b60006122ca828561228d565b91506122d6828461228d565b91508190509392505050565b60008190508160005260206000209050919050565b60006020601f8301049050919050565b600082821b905092915050565b6000600883026123447fffffffffffffffffffffffffffffffffffffffffffffffffffffffffffffffff82612307565b61234e8683612307565b95508019841693508086168417925050509392505050565b6000819050919050565b600061238b61238661238184611c2b565b612366565b611c2b565b9050919050565b6000819050919050565b6123a583612370565b6123b96123b182612392565b848454612314565b825550505050565b600090565b6123ce6123c1565b6123d981848461239c565b505050565b5b818110156123fd576123f26000826123c6565b6001810190506123df565b5050565b601f82111561244257612413816122e2565b61241c846122f7565b8101602085101561242b578190505b61243f612437856122f7565b8301826123de565b50505b505050565b600082821c905092915050565b600061246560001984600802612447565b1980831691505092915050565b600061247e8383612454565b9150826002028217905092915050565b61249782611b79565b67ffffffffffffffff8111156124b0576124af611e0a565b5b6124ba82546121a3565b6124c5828285612401565b600060209050601f8311600181146124f857600084156124e6578287015190505b6124f08582612472565b865550612558565b601f198416612506866122e2565b60005b8281101561252e57848901518255600182019150602085019450602081019050612509565b8683101561254b5784890151612547601f891682612454565b8355505b6001600288020188555050505b505050505050565b600081519050919050565b600082825260208201905092915050565b600061258782612560565b612591818561256b565b93506125a1818560208601611b95565b6125aa81611bbf565b840191505092915050565b60006080820190506125ca6000830187611cc0565b6125d76020830186611cc0565b6125e46040830185611dd6565b81810360608301526125f6818461257c565b905095945050505050565b60008151905061261081611aea565b92915050565b60006020828403121561262c5761262b611ab4565b5b600061263a84828501612601565b91505092915050565b60006040820190506126586000830185611cc0565b6126656020830184611dd6565b9392505050565b7f4e487b7100000000000000000000000000000000000000000000000000000000600052601260045260246000fdfea264697066735822122092ed384f98cd27b1099abb198b8d6ed0c36a9d5a80a6e4d5f59c7c7bbe7f26cf64736f6c634300081a0033a264697066735822122041f0800fbe548ce4ed10cd71db7883542080c4c72c7b76c293dbeb93be4b29f664736f6c634300081a0033",
  "linkReferences": {},
  "deployedLinkReferences": {}
}