{
  "_format": "hh-sol-artifact-1",
  "contractName": "NftFactory",
  "sourceName": "contracts/NftFactory.sol",
  "abi": [
    {
      "anonymous": false,
      "inputs": [
        {
          "indexed": true,
          "internalType": "address",
          "name": "tokenAddress",
          "type": "address"
        },
        {
          "indexed": true,
          "internalType": "address",
          "name": "to",
          "type": "address"
        },
        {
          "indexed": true,
          "internalType": "uint256",
          "name": "tokenId",
          "type": "uint256"
        },
        {
          "indexed": false,
          "internalType": "string",
          "name": "tokenURI",
          "type": "string"
        }
      ],
      "name": "NFTMinted",
      "type": "event"
    },
    {
      "anonymous": false,
      "inputs": [
        {
          "indexed": false,
          "internalType": "address",
          "name": "tokenAddress",
          "type": "address"
        }
      ],
      "name": "TokenCreated",
      "type": "event"
    },
    {
      "inputs": [
        {
          "internalType": "string",
          "name": "name",
          "type": "string"
        },
        {
          "internalType": "string",
          "name": "symbol",
          "type": "string"
        }
      ],
      "name": "deployToken",
      "outputs": [
        {
          "internalType": "address",
          "name": "",
          "type": "address"
        }
      ],
      "stateMutability": "nonpayable",
      "type": "function"
    },
    {
      "inputs": [
        {
          "internalType": "address",
          "name": "tokenAddress",
          "type": "address"
        },
        {
          "internalType": "address",
          "name": "to",
          "type": "address"
        },
        {
          "internalType": "string",
          "name": "tokenURI",
          "type": "string"
        }
      ],
      "name": "mintNFT",
      "outputs": [
        {
          "internalType": "bool",
          "name": "",
          "type": "bool"
        }
      ],
      "stateMutability": "nonpayable",
      "type": "function"
    }
  ],
  "bytecode": "0x6080604052348015600f57600080fd5b506134ab8061001f6000396000f3fe608060405234801561001057600080fd5b50600436106100365760003560e01c80631d12b9381461003b5780637c818f541461006b575b600080fd5b6100556004803603810190610050919061037b565b61009b565b6040516100629190610434565b60405180910390f35b6100856004803603810190610080919061047b565b610119565b6040516100929190610505565b60405180910390f35b6000808383336040516100ad90610214565b6100b99392919061059f565b604051809103906000f0801580156100d5573d6000803e3d6000fd5b5090507f2e2b3f61b70d2d131b2a807371103cc98d51adcaa5e9a8f9c32658ad8426e74e816040516101079190610434565b60405180910390a18091505092915050565b60008084905060008173ffffffffffffffffffffffffffffffffffffffff1663eacabe1486866040518363ffffffff1660e01b815260040161015c9291906105e4565b6020604051808303816000875af115801561017b573d6000803e3d6000fd5b505050506040513d601f19601f8201168201806040525081019061019f919061064a565b9050808573ffffffffffffffffffffffffffffffffffffffff168773ffffffffffffffffffffffffffffffffffffffff167f62e892e3122007df811ddcdf33dc70fd7c6c1d0301fba644e97cbbcdb71c88a9876040516101ff9190610677565b60405180910390a46001925050509392505050565b612ddc8061069a83390190565b6000604051905090565b600080fd5b600080fd5b600080fd5b600080fd5b6000601f19601f8301169050919050565b7f4e487b7100000000000000000000000000000000000000000000000000000000600052604160045260246000fd5b6102888261023f565b810181811067ffffffffffffffff821117156102a7576102a6610250565b5b80604052505050565b60006102ba610221565b90506102c6828261027f565b919050565b600067ffffffffffffffff8211156102e6576102e5610250565b5b6102ef8261023f565b9050602081019050919050565b82818337600083830152505050565b600061031e610319846102cb565b6102b0565b90508281526020810184848401111561033a5761033961023a565b5b6103458482856102fc565b509392505050565b600082601f83011261036257610361610235565b5b813561037284826020860161030b565b91505092915050565b600080604083850312156103925761039161022b565b5b600083013567ffffffffffffffff8111156103b0576103af610230565b5b6103bc8582860161034d565b925050602083013567ffffffffffffffff8111156103dd576103dc610230565b5b6103e98582860161034d565b9150509250929050565b600073ffffffffffffffffffffffffffffffffffffffff82169050919050565b600061041e826103f3565b9050919050565b61042e81610413565b82525050565b60006020820190506104496000830184610425565b92915050565b61045881610413565b811461046357600080fd5b50565b6000813590506104758161044f565b92915050565b6000806000606084860312156104945761049361022b565b5b60006104a286828701610466565b93505060206104b386828701610466565b925050604084013567ffffffffffffffff8111156104d4576104d3610230565b5b6104e08682870161034d565b9150509250925092565b60008115159050919050565b6104ff816104ea565b82525050565b600060208201905061051a60008301846104f6565b92915050565b600081519050919050565b600082825260208201905092915050565b60005b8381101561055a57808201518184015260208101905061053f565b60008484015250505050565b600061057182610520565b61057b818561052b565b935061058b81856020860161053c565b6105948161023f565b840191505092915050565b600060608201905081810360008301526105b98186610566565b905081810360208301526105cd8185610566565b90506105dc6040830184610425565b949350505050565b60006040820190506105f96000830185610425565b818103602083015261060b8184610566565b90509392505050565b6000819050919050565b61062781610614565b811461063257600080fd5b50565b6000815190506106448161061e565b92915050565b6000602082840312156106605761065f61022b565b5b600061066e84828501610635565b91505092915050565b600060208201905081810360008301526106918184610566565b90509291505056fe608060405234801561001057600080fd5b50604051612ddc380380612ddc83398181016040528101906100329190610382565b8083838160009081610044919061062e565b508060019081610054919061062e565b505050600073ffffffffffffffffffffffffffffffffffffffff168173ffffffffffffffffffffffffffffffffffffffff16036100c95760006040517f1e4fbdf70000000000000000000000000000000000000000000000000000000081526004016100c0919061070f565b60405180910390fd5b6100d8816100e960201b60201c565b50600160088190555050505061072a565b6000600760009054906101000a900473ffffffffffffffffffffffffffffffffffffffff16905081600760006101000a81548173ffffffffffffffffffffffffffffffffffffffff021916908373ffffffffffffffffffffffffffffffffffffffff1602179055508173ffffffffffffffffffffffffffffffffffffffff168173ffffffffffffffffffffffffffffffffffffffff167f8be0079c531659141344cd1fd0a4f28419497f9722a3daafe3b4186f6b6457e060405160405180910390a35050565b6000604051905090565b600080fd5b600080fd5b600080fd5b600080fd5b6000601f19601f8301169050919050565b7f4e487b7100000000000000000000000000000000000000000000000000000000600052604160045260246000fd5b610216826101cd565b810181811067ffffffffffffffff82111715610235576102346101de565b5b80604052505050565b60006102486101af565b9050610254828261020d565b919050565b600067ffffffffffffffff821115610274576102736101de565b5b61027d826101cd565b9050602081019050919050565b60005b838110156102a857808201518184015260208101905061028d565b60008484015250505050565b60006102c76102c284610259565b61023e565b9050828152602081018484840111156102e3576102e26101c8565b5b6102ee84828561028a565b509392505050565b600082601f83011261030b5761030a6101c3565b5b815161031b8482602086016102b4565b91505092915050565b600073ffffffffffffffffffffffffffffffffffffffff82169050919050565b600061034f82610324565b9050919050565b61035f81610344565b811461036a57600080fd5b50565b60008151905061037c81610356565b92915050565b60008060006060848603121561039b5761039a6101b9565b5b600084015167ffffffffffffffff8111156103b9576103b86101be565b5b6103c5868287016102f6565b935050602084015167ffffffffffffffff8111156103e6576103e56101be565b5b6103f2868287016102f6565b92505060406104038682870161036d565b9150509250925092565b600081519050919050565b7f4e487b7100000000000000000000000000000000000000000000000000000000600052602260045260246000fd5b6000600282049050600182168061045f57607f821691505b60208210810361047257610471610418565b5b50919050565b60008190508160005260206000209050919050565b60006020601f8301049050919050565b600082821b905092915050565b6000600883026104da7fffffffffffffffffffffffffffffffffffffffffffffffffffffffffffffffff8261049d565b6104e4868361049d565b95508019841693508086168417925050509392505050565b6000819050919050565b6000819050919050565b600061052b610526610521846104fc565b610506565b6104fc565b9050919050565b6000819050919050565b61054583610510565b61055961055182610532565b8484546104aa565b825550505050565b600090565b61056e610561565b61057981848461053c565b505050565b5b8181101561059d57610592600082610566565b60018101905061057f565b5050565b601f8211156105e2576105b381610478565b6105bc8461048d565b810160208510156105cb578190505b6105df6105d78561048d565b83018261057e565b50505b505050565b600082821c905092915050565b6000610605600019846008026105e7565b1980831691505092915050565b600061061e83836105f4565b9150826002028217905092915050565b6106378261040d565b67ffffffffffffffff8111156106505761064f6101de565b5b61065a8254610447565b6106658282856105a1565b600060209050601f8311600181146106985760008415610686578287015190505b6106908582610612565b8655506106f8565b601f1984166106a686610478565b60005b828110156106ce578489015182556001820191506020850194506020810190506106a9565b868310156106eb57848901516106e7601f8916826105f4565b8355505b6001600288020188555050505b505050505050565b61070981610344565b82525050565b60006020820190506107246000830184610700565b92915050565b6126a3806107396000396000f3fe608060405234801561001057600080fd5b50600436106101165760003560e01c806375794a3c116100a2578063b88d4fde11610071578063b88d4fde146102cd578063c87b56dd146102e9578063e985e9c514610319578063eacabe1414610349578063f2fde38b1461037957610116565b806375794a3c146102575780638da5cb5b1461027557806395d89b4114610293578063a22cb465146102b157610116565b806323b872dd116100e957806323b872dd146101b557806342842e0e146101d15780636352211e146101ed57806370a082311461021d578063715018a61461024d57610116565b806301ffc9a71461011b57806306fdde031461014b578063081812fc14610169578063095ea7b314610199575b600080fd5b61013560048036038101906101309190611afb565b610395565b6040516101429190611b43565b60405180910390f35b6101536103f6565b6040516101609190611bee565b60405180910390f35b610183600480360381019061017e9190611c46565b610488565b6040516101909190611cb4565b60405180910390f35b6101b360048036038101906101ae9190611cfb565b6104a4565b005b6101cf60048036038101906101ca9190611d3b565b6104ba565b005b6101eb60048036038101906101e69190611d3b565b6105bc565b005b61020760048036038101906102029190611c46565b6105dc565b6040516102149190611cb4565b60405180910390f35b61023760048036038101906102329190611d8e565b6105ee565b6040516102449190611dca565b60405180910390f35b6102556106a8565b005b61025f6106bc565b60405161026c9190611dca565b60405180910390f35b61027d6106c6565b60405161028a9190611cb4565b60405180910390f35b61029b6106f0565b6040516102a89190611bee565b60405180910390f35b6102cb60048036038101906102c69190611e11565b610782565b005b6102e760048036038101906102e29190611f86565b610798565b005b61030360048036038101906102fe9190611c46565b6107b5565b6040516103109190611bee565b60405180910390f35b610333600480360381019061032e9190612009565b6108c8565b6040516103409190611b43565b60405180910390f35b610363600480360381019061035e91906120ea565b61095c565b6040516103709190611dca565b60405180910390f35b610393600480360381019061038e9190611d8e565b61099a565b005b6000634906490660e01b7bffffffffffffffffffffffffffffffffffffffffffffffffffffffff1916827bffffffffffffffffffffffffffffffffffffffffffffffffffffffff191614806103ef57506103ee82610a20565b5b9050919050565b60606000805461040590612175565b80601f016020809104026020016040519081016040528092919081815260200182805461043190612175565b801561047e5780601f106104535761010080835404028352916020019161047e565b820191906000526020600020905b81548152906001019060200180831161046157829003601f168201915b5050505050905090565b600061049382610b02565b5061049d82610b8a565b9050919050565b6104b682826104b1610bc7565b610bcf565b5050565b600073ffffffffffffffffffffffffffffffffffffffff168273ffffffffffffffffffffffffffffffffffffffff160361052c5760006040517f64a0ae920000000000000000000000000000000000000000000000000000000081526004016105239190611cb4565b60405180910390fd5b6000610540838361053b610bc7565b610be1565b90508373ffffffffffffffffffffffffffffffffffffffff168173ffffffffffffffffffffffffffffffffffffffff16146105b6578382826040517f64283d7b0000000000000000000000000000000000000000000000000000000081526004016105ad939291906121a6565b60405180910390fd5b50505050565b6105d783838360405180602001604052806000815250610798565b505050565b60006105e782610b02565b9050919050565b60008073ffffffffffffffffffffffffffffffffffffffff168273ffffffffffffffffffffffffffffffffffffffff16036106615760006040517f89c62b640000000000000000000000000000000000000000000000000000000081526004016106589190611cb4565b60405180910390fd5b600360008373ffffffffffffffffffffffffffffffffffffffff1673ffffffffffffffffffffffffffffffffffffffff168152602001908152602001600020549050919050565b6106b0610dfb565b6106ba6000610e82565b565b6000600854905090565b6000600760009054906101000a900473ffffffffffffffffffffffffffffffffffffffff16905090565b6060600180546106ff90612175565b80601f016020809104026020016040519081016040528092919081815260200182805461072b90612175565b80156107785780601f1061074d57610100808354040283529160200191610778565b820191906000526020600020905b81548152906001019060200180831161075b57829003601f168201915b5050505050905090565b61079461078d610bc7565b8383610f48565b5050565b6107a38484846104ba565b6107af848484846110b7565b50505050565b60606107c082610b02565b5060006006600084815260200190815260200160002080546107e190612175565b80601f016020809104026020016040519081016040528092919081815260200182805461080d90612175565b801561085a5780601f1061082f5761010080835404028352916020019161085a565b820191906000526020600020905b81548152906001019060200180831161083d57829003601f168201915b50505050509050600061086b61126e565b905060008151036108805781925050506108c3565b6000825111156108b557808260405160200161089d929190612219565b604051602081830303815290604052925050506108c3565b6108be84611285565b925050505b919050565b6000600560008473ffffffffffffffffffffffffffffffffffffffff1673ffffffffffffffffffffffffffffffffffffffff16815260200190815260200160002060008373ffffffffffffffffffffffffffffffffffffffff1673ffffffffffffffffffffffffffffffffffffffff16815260200190815260200160002060009054906101000a900460ff16905092915050565b600080600854905061096e84826112ee565b610978818461130c565b6008600081548092919061098b9061226c565b91905055508091505092915050565b6109a2610dfb565b600073ffffffffffffffffffffffffffffffffffffffff168173ffffffffffffffffffffffffffffffffffffffff1603610a145760006040517f1e4fbdf7000000000000000000000000000000000000000000000000000000008152600401610a0b9190611cb4565b60405180910390fd5b610a1d81610e82565b50565b60007f80ac58cd000000000000000000000000000000000000000000000000000000007bffffffffffffffffffffffffffffffffffffffffffffffffffffffff1916827bffffffffffffffffffffffffffffffffffffffffffffffffffffffff19161480610aeb57507f5b5e139f000000000000000000000000000000000000000000000000000000007bffffffffffffffffffffffffffffffffffffffffffffffffffffffff1916827bffffffffffffffffffffffffffffffffffffffffffffffffffffffff1916145b80610afb5750610afa82611368565b5b9050919050565b600080610b0e836113d2565b9050600073ffffffffffffffffffffffffffffffffffffffff168173ffffffffffffffffffffffffffffffffffffffff1603610b8157826040517f7e273289000000000000000000000000000000000000000000000000000000008152600401610b789190611dca565b60405180910390fd5b80915050919050565b60006004600083815260200190815260200160002060009054906101000a900473ffffffffffffffffffffffffffffffffffffffff169050919050565b600033905090565b610bdc838383600161140f565b505050565b600080610bed846113d2565b9050600073ffffffffffffffffffffffffffffffffffffffff168373ffffffffffffffffffffffffffffffffffffffff1614610c2f57610c2e8184866115d4565b5b600073ffffffffffffffffffffffffffffffffffffffff168173ffffffffffffffffffffffffffffffffffffffff1614610cc057610c7160008560008061140f565b6001600360008373ffffffffffffffffffffffffffffffffffffffff1673ffffffffffffffffffffffffffffffffffffffff168152602001908152602001600020600082825403925050819055505b600073ffffffffffffffffffffffffffffffffffffffff168573ffffffffffffffffffffffffffffffffffffffff1614610d43576001600360008773ffffffffffffffffffffffffffffffffffffffff1673ffffffffffffffffffffffffffffffffffffffff168152602001908152602001600020600082825401925050819055505b846002600086815260200190815260200160002060006101000a81548173ffffffffffffffffffffffffffffffffffffffff021916908373ffffffffffffffffffffffffffffffffffffffff160217905550838573ffffffffffffffffffffffffffffffffffffffff168273ffffffffffffffffffffffffffffffffffffffff167fddf252ad1be2c89b69c2b068fc378daa952ba7f163c4a11628f55a4df523b3ef60405160405180910390a4809150509392505050565b610e03610bc7565b73ffffffffffffffffffffffffffffffffffffffff16610e216106c6565b73ffffffffffffffffffffffffffffffffffffffff1614610e8057610e44610bc7565b6040517f118cdaa7000000000000000000000000000000000000000000000000000000008152600401610e779190611cb4565b60405180910390fd5b565b6000600760009054906101000a900473ffffffffffffffffffffffffffffffffffffffff16905081600760006101000a81548173ffffffffffffffffffffffffffffffffffffffff021916908373ffffffffffffffffffffffffffffffffffffffff1602179055508173ffffffffffffffffffffffffffffffffffffffff168173ffffffffffffffffffffffffffffffffffffffff167f8be0079c531659141344cd1fd0a4f28419497f9722a3daafe3b4186f6b6457e060405160405180910390a35050565b600073ffffffffffffffffffffffffffffffffffffffff168273ffffffffffffffffffffffffffffffffffffffff1603610fb957816040517f5b08ba18000000000000000000000000000000000000000000000000000000008152600401610fb09190611cb4565b60405180910390fd5b80600560008573ffffffffffffffffffffffffffffffffffffffff1673ffffffffffffffffffffffffffffffffffffffff16815260200190815260200160002060008473ffffffffffffffffffffffffffffffffffffffff1673ffffffffffffffffffffffffffffffffffffffff16815260200190815260200160002060006101000a81548160ff0219169083151502179055508173ffffffffffffffffffffffffffffffffffffffff168373ffffffffffffffffffffffffffffffffffffffff167f17307eab39ab6107e8899845ad3d59bd9653f200f220920489ca2b5937696c31836040516110aa9190611b43565b60405180910390a3505050565b60008373ffffffffffffffffffffffffffffffffffffffff163b1115611268578273ffffffffffffffffffffffffffffffffffffffff1663150b7a026110fb610bc7565b8685856040518563ffffffff1660e01b815260040161111d9493929190612309565b6020604051808303816000875af192505050801561115957506040513d601f19601f82011682018060405250810190611156919061236a565b60015b6111dd573d8060008114611189576040519150601f19603f3d011682016040523d82523d6000602084013e61118e565b606091505b5060008151036111d557836040517f64a0ae920000000000000000000000000000000000000000000000000000000081526004016111cc9190611cb4565b60405180910390fd5b805181602001fd5b63150b7a0260e01b7bffffffffffffffffffffffffffffffffffffffffffffffffffffffff1916817bffffffffffffffffffffffffffffffffffffffffffffffffffffffff19161461126657836040517f64a0ae9200000000000000000000000000000000000000000000000000000000815260040161125d9190611cb4565b60405180910390fd5b505b50505050565b606060405180602001604052806000815250905090565b606061129082610b02565b50600061129b61126e565b905060008151116112bb57604051806020016040528060008152506112e6565b806112c584611698565b6040516020016112d6929190612219565b6040516020818303038152906040525b915050919050565b611308828260405180602001604052806000815250611766565b5050565b8060066000848152602001908152602001600020908161132c9190612543565b507ff8e1a15aba9398e019f0b49df1a4fde98ee17ae345cb5f6b5e2c27f5033e8ce78260405161135c9190611dca565b60405180910390a15050565b60007f01ffc9a7000000000000000000000000000000000000000000000000000000007bffffffffffffffffffffffffffffffffffffffffffffffffffffffff1916827bffffffffffffffffffffffffffffffffffffffffffffffffffffffff1916149050919050565b60006002600083815260200190815260200160002060009054906101000a900473ffffffffffffffffffffffffffffffffffffffff169050919050565b80806114485750600073ffffffffffffffffffffffffffffffffffffffff168273ffffffffffffffffffffffffffffffffffffffff1614155b1561157c57600061145884610b02565b9050600073ffffffffffffffffffffffffffffffffffffffff168373ffffffffffffffffffffffffffffffffffffffff16141580156114c357508273ffffffffffffffffffffffffffffffffffffffff168173ffffffffffffffffffffffffffffffffffffffff1614155b80156114d657506114d481846108c8565b155b1561151857826040517fa9fbf51f00000000000000000000000000000000000000000000000000000000815260040161150f9190611cb4565b60405180910390fd5b811561157a57838573ffffffffffffffffffffffffffffffffffffffff168273ffffffffffffffffffffffffffffffffffffffff167f8c5be1e5ebec7d5bd14f71427d1e84f3dd0314c0f7b2291e5b200ac8c7c3b92560405160405180910390a45b505b836004600085815260200190815260200160002060006101000a81548173ffffffffffffffffffffffffffffffffffffffff021916908373ffffffffffffffffffffffffffffffffffffffff16021790555050505050565b6115df838383611782565b61169357600073ffffffffffffffffffffffffffffffffffffffff168373ffffffffffffffffffffffffffffffffffffffff160361165457806040517f7e27328900000000000000000000000000000000000000000000000000000000815260040161164b9190611dca565b60405180910390fd5b81816040517f177e802f00000000000000000000000000000000000000000000000000000000815260040161168a929190612615565b60405180910390fd5b505050565b6060600060016116a784611843565b01905060008167ffffffffffffffff8111156116c6576116c5611e5b565b5b6040519080825280601f01601f1916602001820160405280156116f85781602001600182028036833780820191505090505b509050600082602001820190505b60011561175b578080600190039150507f3031323334353637383961626364656600000000000000000000000000000000600a86061a8153600a858161174f5761174e61263e565b5b04945060008503611706575b819350505050919050565b6117708383611996565b61177d60008484846110b7565b505050565b60008073ffffffffffffffffffffffffffffffffffffffff168373ffffffffffffffffffffffffffffffffffffffff161415801561183a57508273ffffffffffffffffffffffffffffffffffffffff168473ffffffffffffffffffffffffffffffffffffffff1614806117fb57506117fa84846108c8565b5b8061183957508273ffffffffffffffffffffffffffffffffffffffff1661182183610b8a565b73ffffffffffffffffffffffffffffffffffffffff16145b5b90509392505050565b600080600090507a184f03e93ff9f4daa797ed6e38ed64bf6a1f01000000000000000083106118a1577a184f03e93ff9f4daa797ed6e38ed64bf6a1f01000000000000000083816118975761189661263e565b5b0492506040810190505b6d04ee2d6d415b85acef810000000083106118de576d04ee2d6d415b85acef810000000083816118d4576118d361263e565b5b0492506020810190505b662386f26fc10000831061190d57662386f26fc1000083816119035761190261263e565b5b0492506010810190505b6305f5e1008310611936576305f5e100838161192c5761192b61263e565b5b0492506008810190505b612710831061195b5761271083816119515761195061263e565b5b0492506004810190505b6064831061197e57606483816119745761197361263e565b5b0492506002810190505b600a831061198d576001810190505b80915050919050565b600073ffffffffffffffffffffffffffffffffffffffff168273ffffffffffffffffffffffffffffffffffffffff1603611a085760006040517f64a0ae920000000000000000000000000000000000000000000000000000000081526004016119ff9190611cb4565b60405180910390fd5b6000611a1683836000610be1565b9050600073ffffffffffffffffffffffffffffffffffffffff168173ffffffffffffffffffffffffffffffffffffffff1614611a8a5760006040517f73c6ac6e000000000000000000000000000000000000000000000000000000008152600401611a819190611cb4565b60405180910390fd5b505050565b6000604051905090565b600080fd5b600080fd5b60007fffffffff0000000000000000000000000000000000000000000000000000000082169050919050565b611ad881611aa3565b8114611ae357600080fd5b50565b600081359050611af581611acf565b92915050565b600060208284031215611b1157611b10611a99565b5b6000611b1f84828501611ae6565b91505092915050565b60008115159050919050565b611b3d81611b28565b82525050565b6000602082019050611b586000830184611b34565b92915050565b600081519050919050565b600082825260208201905092915050565b60005b83811015611b98578082015181840152602081019050611b7d565b60008484015250505050565b6000601f19601f8301169050919050565b6000611bc082611b5e565b611bca8185611b69565b9350611bda818560208601611b7a565b611be381611ba4565b840191505092915050565b60006020820190508181036000830152611c088184611bb5565b905092915050565b6000819050919050565b611c2381611c10565b8114611c2e57600080fd5b50565b600081359050611c4081611c1a565b92915050565b600060208284031215611c5c57611c5b611a99565b5b6000611c6a84828501611c31565b91505092915050565b600073ffffffffffffffffffffffffffffffffffffffff82169050919050565b6000611c9e82611c73565b9050919050565b611cae81611c93565b82525050565b6000602082019050611cc96000830184611ca5565b92915050565b611cd881611c93565b8114611ce357600080fd5b50565b600081359050611cf581611ccf565b92915050565b60008060408385031215611d1257611d11611a99565b5b6000611d2085828601611ce6565b9250506020611d3185828601611c31565b9150509250929050565b600080600060608486031215611d5457611d53611a99565b5b6000611d6286828701611ce6565b9350506020611d7386828701611ce6565b9250506040611d8486828701611c31565b9150509250925092565b600060208284031215611da457611da3611a99565b5b6000611db284828501611ce6565b91505092915050565b611dc481611c10565b82525050565b6000602082019050611ddf6000830184611dbb565b92915050565b611dee81611b28565b8114611df957600080fd5b50565b600081359050611e0b81611de5565b92915050565b60008060408385031215611e2857611e27611a99565b5b6000611e3685828601611ce6565b9250506020611e4785828601611dfc565b9150509250929050565b600080fd5b600080fd5b7f4e487b7100000000000000000000000000000000000000000000000000000000600052604160045260246000fd5b611e9382611ba4565b810181811067ffffffffffffffff82111715611eb257611eb1611e5b565b5b80604052505050565b6000611ec5611a8f565b9050611ed18282611e8a565b919050565b600067ffffffffffffffff821115611ef157611ef0611e5b565b5b611efa82611ba4565b9050602081019050919050565b82818337600083830152505050565b6000611f29611f2484611ed6565b611ebb565b905082815260208101848484011115611f4557611f44611e56565b5b611f50848285611f07565b509392505050565b600082601f830112611f6d57611f6c611e51565b5b8135611f7d848260208601611f16565b91505092915050565b60008060008060808587031215611fa057611f9f611a99565b5b6000611fae87828801611ce6565b9450506020611fbf87828801611ce6565b9350506040611fd087828801611c31565b925050606085013567ffffffffffffffff811115611ff157611ff0611a9e565b5b611ffd87828801611f58565b91505092959194509250565b600080604083850312156120205761201f611a99565b5b600061202e85828601611ce6565b925050602061203f85828601611ce6565b9150509250929050565b600067ffffffffffffffff82111561206457612063611e5b565b5b61206d82611ba4565b9050602081019050919050565b600061208d61208884612049565b611ebb565b9050828152602081018484840111156120a9576120a8611e56565b5b6120b4848285611f07565b509392505050565b600082601f8301126120d1576120d0611e51565b5b81356120e184826020860161207a565b91505092915050565b6000806040838503121561210157612100611a99565b5b600061210f85828601611ce6565b925050602083013567ffffffffffffffff8111156121305761212f611a9e565b5b61213c858286016120bc565b9150509250929050565b7f4e487b7100000000000000000000000000000000000000000000000000000000600052602260045260246000fd5b6000600282049050600182168061218d57607f821691505b6020821081036121a05761219f612146565b5b50919050565b60006060820190506121bb6000830186611ca5565b6121c86020830185611dbb565b6121d56040830184611ca5565b949350505050565b600081905092915050565b60006121f382611b5e565b6121fd81856121dd565b935061220d818560208601611b7a565b80840191505092915050565b600061222582856121e8565b915061223182846121e8565b91508190509392505050565b7f4e487b7100000000000000000000000000000000000000000000000000000000600052601160045260246000fd5b600061227782611c10565b91507fffffffffffffffffffffffffffffffffffffffffffffffffffffffffffffffff82036122a9576122a861223d565b5b600182019050919050565b600081519050919050565b600082825260208201905092915050565b60006122db826122b4565b6122e581856122bf565b93506122f5818560208601611b7a565b6122fe81611ba4565b840191505092915050565b600060808201905061231e6000830187611ca5565b61232b6020830186611ca5565b6123386040830185611dbb565b818103606083015261234a81846122d0565b905095945050505050565b60008151905061236481611acf565b92915050565b6000602082840312156123805761237f611a99565b5b600061238e84828501612355565b91505092915050565b60008190508160005260206000209050919050565b60006020601f8301049050919050565b600082821b905092915050565b6000600883026123f97fffffffffffffffffffffffffffffffffffffffffffffffffffffffffffffffff826123bc565b61240386836123bc565b95508019841693508086168417925050509392505050565b6000819050919050565b600061244061243b61243684611c10565b61241b565b611c10565b9050919050565b6000819050919050565b61245a83612425565b61246e61246682612447565b8484546123c9565b825550505050565b600090565b612483612476565b61248e818484612451565b505050565b5b818110156124b2576124a760008261247b565b600181019050612494565b5050565b601f8211156124f7576124c881612397565b6124d1846123ac565b810160208510156124e0578190505b6124f46124ec856123ac565b830182612493565b50505b505050565b600082821c905092915050565b600061251a600019846008026124fc565b1980831691505092915050565b60006125338383612509565b9150826002028217905092915050565b61254c82611b5e565b67ffffffffffffffff81111561256557612564611e5b565b5b61256f8254612175565b61257a8282856124b6565b600060209050601f8311600181146125ad576000841561259b578287015190505b6125a58582612527565b86555061260d565b601f1984166125bb86612397565b60005b828110156125e3578489015182556001820191506020850194506020810190506125be565b8683101561260057848901516125fc601f891682612509565b8355505b6001600288020188555050505b505050505050565b600060408201905061262a6000830185611ca5565b6126376020830184611dbb565b9392505050565b7f4e487b7100000000000000000000000000000000000000000000000000000000600052601260045260246000fdfea2646970667358221220ead6025b5c63ebb8cbfce231798244fc2cb66c5cb9732f427c9e018d45ea549164736f6c634300081a0033a2646970667358221220a9da5e3e5143f4057e42cbd51d01d389db11444877f0bd6ca71a21fe6499fb8564736f6c634300081a0033",
  "linkReferences": {},
  "deployedLinkReferences": {}
}