{
  "_format": "hh-sol-artifact-1",
  "contractName": "TokenFactory",
  "sourceName": "contracts/TokenFactory.sol",
  "abi": [
    {
      "anonymous": false,
      "inputs": [
        {
          "indexed": true,
          "internalType": "address",
          "name": "tokenAddress",
          "type": "address"
        },
        {
          "indexed": true,
          "internalType": "address",
          "name": "owner",
          "type": "address"
        }
      ],
      "name": "TokenDeployed",
      "type": "event"
    },
    {
      "inputs": [
        {
          "internalType": "string",
          "name": "name",
          "type": "string"
        },
        {
          "internalType": "string",
          "name": "symbol",
          "type": "string"
        },
        {
          "internalType": "uint8",
          "name": "decimals",
          "type": "uint8"
        },
        {
          "internalType": "uint256",
          "name": "initialSupply",
          "type": "uint256"
        }
      ],
      "name": "createToken",
      "outputs": [],
      "stateMutability": "nonpayable",
      "type": "function"
    }
  ],
  "bytecode": "0x6080604052348015600f57600080fd5b50611fb58061001f6000396000f3fe608060405234801561001057600080fd5b506004361061002b5760003560e01c8063210f5dda14610030575b600080fd5b61004a600480360381019061004591906102c3565b61004c565b005b6000848484843360405161005f906100ed565b61006d959493929190610440565b604051809103906000f080158015610089573d6000803e3d6000fd5b5090503373ffffffffffffffffffffffffffffffffffffffff168173ffffffffffffffffffffffffffffffffffffffff167ff9a44e6db3fb6e0eb31c4013bda8c662fecef1768dd2412270cc8f8821cbccf360405160405180910390a35050505050565b611ade806104a283390190565b6000604051905090565b600080fd5b600080fd5b600080fd5b600080fd5b6000601f19601f8301169050919050565b7f4e487b7100000000000000000000000000000000000000000000000000000000600052604160045260246000fd5b61016182610118565b810181811067ffffffffffffffff821117156101805761017f610129565b5b80604052505050565b60006101936100fa565b905061019f8282610158565b919050565b600067ffffffffffffffff8211156101bf576101be610129565b5b6101c882610118565b9050602081019050919050565b82818337600083830152505050565b60006101f76101f2846101a4565b610189565b90508281526020810184848401111561021357610212610113565b5b61021e8482856101d5565b509392505050565b600082601f83011261023b5761023a61010e565b5b813561024b8482602086016101e4565b91505092915050565b600060ff82169050919050565b61026a81610254565b811461027557600080fd5b50565b60008135905061028781610261565b92915050565b6000819050919050565b6102a08161028d565b81146102ab57600080fd5b50565b6000813590506102bd81610297565b92915050565b600080600080608085870312156102dd576102dc610104565b5b600085013567ffffffffffffffff8111156102fb576102fa610109565b5b61030787828801610226565b945050602085013567ffffffffffffffff81111561032857610327610109565b5b61033487828801610226565b935050604061034587828801610278565b9250506060610356878288016102ae565b91505092959194509250565b600081519050919050565b600082825260208201905092915050565b60005b8381101561039c578082015181840152602081019050610381565b60008484015250505050565b60006103b382610362565b6103bd818561036d565b93506103cd81856020860161037e565b6103d681610118565b840191505092915050565b6103ea81610254565b82525050565b6103f98161028d565b82525050565b600073ffffffffffffffffffffffffffffffffffffffff82169050919050565b600061042a826103ff565b9050919050565b61043a8161041f565b82525050565b600060a082019050818103600083015261045a81886103a8565b9050818103602083015261046e81876103a8565b905061047d60408301866103e1565b61048a60608301856103f0565b6104976080830184610431565b969550505050505056fe608060405234801561001057600080fd5b50604051611ade380380611ade83398181016040528101906100329190610579565b848481600390816100439190610843565b5080600490816100539190610843565b505050610080818460ff16600a61006a9190610a77565b846100759190610ac2565b61008a60201b60201c565b5050505050610bc3565b600073ffffffffffffffffffffffffffffffffffffffff168273ffffffffffffffffffffffffffffffffffffffff16036100fc5760006040517fec442f050000000000000000000000000000000000000000000000000000000081526004016100f39190610b13565b60405180910390fd5b61010e6000838361011260201b60201c565b5050565b600073ffffffffffffffffffffffffffffffffffffffff168373ffffffffffffffffffffffffffffffffffffffff16036101645780600260008282546101589190610b2e565b92505081905550610237565b60008060008573ffffffffffffffffffffffffffffffffffffffff1673ffffffffffffffffffffffffffffffffffffffff168152602001908152602001600020549050818110156101f0578381836040517fe450d38c0000000000000000000000000000000000000000000000000000000081526004016101e793929190610b71565b60405180910390fd5b8181036000808673ffffffffffffffffffffffffffffffffffffffff1673ffffffffffffffffffffffffffffffffffffffff16815260200190815260200160002081905550505b600073ffffffffffffffffffffffffffffffffffffffff168273ffffffffffffffffffffffffffffffffffffffff160361028057806002600082825403925050819055506102cd565b806000808473ffffffffffffffffffffffffffffffffffffffff1673ffffffffffffffffffffffffffffffffffffffff168152602001908152602001600020600082825401925050819055505b8173ffffffffffffffffffffffffffffffffffffffff168373ffffffffffffffffffffffffffffffffffffffff167fddf252ad1be2c89b69c2b068fc378daa952ba7f163c4a11628f55a4df523b3ef8360405161032a9190610ba8565b60405180910390a3505050565b6000604051905090565b600080fd5b600080fd5b600080fd5b600080fd5b6000601f19601f8301169050919050565b7f4e487b7100000000000000000000000000000000000000000000000000000000600052604160045260246000fd5b61039e82610355565b810181811067ffffffffffffffff821117156103bd576103bc610366565b5b80604052505050565b60006103d0610337565b90506103dc8282610395565b919050565b600067ffffffffffffffff8211156103fc576103fb610366565b5b61040582610355565b9050602081019050919050565b60005b83811015610430578082015181840152602081019050610415565b60008484015250505050565b600061044f61044a846103e1565b6103c6565b90508281526020810184848401111561046b5761046a610350565b5b610476848285610412565b509392505050565b600082601f8301126104935761049261034b565b5b81516104a384826020860161043c565b91505092915050565b600060ff82169050919050565b6104c2816104ac565b81146104cd57600080fd5b50565b6000815190506104df816104b9565b92915050565b6000819050919050565b6104f8816104e5565b811461050357600080fd5b50565b600081519050610515816104ef565b92915050565b600073ffffffffffffffffffffffffffffffffffffffff82169050919050565b60006105468261051b565b9050919050565b6105568161053b565b811461056157600080fd5b50565b6000815190506105738161054d565b92915050565b600080600080600060a0868803121561059557610594610341565b5b600086015167ffffffffffffffff8111156105b3576105b2610346565b5b6105bf8882890161047e565b955050602086015167ffffffffffffffff8111156105e0576105df610346565b5b6105ec8882890161047e565b94505060406105fd888289016104d0565b935050606061060e88828901610506565b925050608061061f88828901610564565b9150509295509295909350565b600081519050919050565b7f4e487b7100000000000000000000000000000000000000000000000000000000600052602260045260246000fd5b6000600282049050600182168061067e57607f821691505b60208210810361069157610690610637565b5b50919050565b60008190508160005260206000209050919050565b60006020601f8301049050919050565b600082821b905092915050565b6000600883026106f97fffffffffffffffffffffffffffffffffffffffffffffffffffffffffffffffff826106bc565b61070386836106bc565b95508019841693508086168417925050509392505050565b6000819050919050565b600061074061073b610736846104e5565b61071b565b6104e5565b9050919050565b6000819050919050565b61075a83610725565b61076e61076682610747565b8484546106c9565b825550505050565b600090565b610783610776565b61078e818484610751565b505050565b5b818110156107b2576107a760008261077b565b600181019050610794565b5050565b601f8211156107f7576107c881610697565b6107d1846106ac565b810160208510156107e0578190505b6107f46107ec856106ac565b830182610793565b50505b505050565b600082821c905092915050565b600061081a600019846008026107fc565b1980831691505092915050565b60006108338383610809565b9150826002028217905092915050565b61084c8261062c565b67ffffffffffffffff81111561086557610864610366565b5b61086f8254610666565b61087a8282856107b6565b600060209050601f8311600181146108ad576000841561089b578287015190505b6108a58582610827565b86555061090d565b601f1984166108bb86610697565b60005b828110156108e3578489015182556001820191506020850194506020810190506108be565b8683101561090057848901516108fc601f891682610809565b8355505b6001600288020188555050505b505050505050565b7f4e487b7100000000000000000000000000000000000000000000000000000000600052601160045260246000fd5b60008160011c9050919050565b6000808291508390505b600185111561099b5780860481111561097757610976610915565b5b60018516156109865780820291505b808102905061099485610944565b945061095b565b94509492505050565b6000826109b45760019050610a70565b816109c25760009050610a70565b81600181146109d857600281146109e257610a11565b6001915050610a70565b60ff8411156109f4576109f3610915565b5b8360020a915084821115610a0b57610a0a610915565b5b50610a70565b5060208310610133831016604e8410600b8410161715610a465782820a905083811115610a4157610a40610915565b5b610a70565b610a538484846001610951565b92509050818404811115610a6a57610a69610915565b5b81810290505b9392505050565b6000610a82826104e5565b9150610a8d836104e5565b9250610aba7fffffffffffffffffffffffffffffffffffffffffffffffffffffffffffffffff84846109a4565b905092915050565b6000610acd826104e5565b9150610ad8836104e5565b9250828202610ae6816104e5565b91508282048414831517610afd57610afc610915565b5b5092915050565b610b0d8161053b565b82525050565b6000602082019050610b286000830184610b04565b92915050565b6000610b39826104e5565b9150610b44836104e5565b9250828201905080821115610b5c57610b5b610915565b5b92915050565b610b6b816104e5565b82525050565b6000606082019050610b866000830186610b04565b610b936020830185610b62565b610ba06040830184610b62565b949350505050565b6000602082019050610bbd6000830184610b62565b92915050565b610f0c80610bd26000396000f3fe608060405234801561001057600080fd5b506004361061009e5760003560e01c806340c10f191161006657806340c10f191461015d57806370a082311461017957806395d89b41146101a9578063a9059cbb146101c7578063dd62ed3e146101f75761009e565b806306fdde03146100a3578063095ea7b3146100c157806318160ddd146100f157806323b872dd1461010f578063313ce5671461013f575b600080fd5b6100ab610227565b6040516100b89190610b60565b60405180910390f35b6100db60048036038101906100d69190610c1b565b6102b9565b6040516100e89190610c76565b60405180910390f35b6100f96102dc565b6040516101069190610ca0565b60405180910390f35b61012960048036038101906101249190610cbb565b6102e6565b6040516101369190610c76565b60405180910390f35b610147610315565b6040516101549190610d2a565b60405180910390f35b61017760048036038101906101729190610c1b565b61031e565b005b610193600480360381019061018e9190610d45565b61032c565b6040516101a09190610ca0565b60405180910390f35b6101b1610374565b6040516101be9190610b60565b60405180910390f35b6101e160048036038101906101dc9190610c1b565b610406565b6040516101ee9190610c76565b60405180910390f35b610211600480360381019061020c9190610d72565b610429565b60405161021e9190610ca0565b60405180910390f35b60606003805461023690610de1565b80601f016020809104026020016040519081016040528092919081815260200182805461026290610de1565b80156102af5780601f10610284576101008083540402835291602001916102af565b820191906000526020600020905b81548152906001019060200180831161029257829003601f168201915b5050505050905090565b6000806102c46104b0565b90506102d18185856104b8565b600191505092915050565b6000600254905090565b6000806102f16104b0565b90506102fe8582856104ca565b61030985858561055e565b60019150509392505050565b60006012905090565b6103288282610652565b5050565b60008060008373ffffffffffffffffffffffffffffffffffffffff1673ffffffffffffffffffffffffffffffffffffffff168152602001908152602001600020549050919050565b60606004805461038390610de1565b80601f01602080910402602001604051908101604052809291908181526020018280546103af90610de1565b80156103fc5780601f106103d1576101008083540402835291602001916103fc565b820191906000526020600020905b8154815290600101906020018083116103df57829003601f168201915b5050505050905090565b6000806104116104b0565b905061041e81858561055e565b600191505092915050565b6000600160008473ffffffffffffffffffffffffffffffffffffffff1673ffffffffffffffffffffffffffffffffffffffff16815260200190815260200160002060008373ffffffffffffffffffffffffffffffffffffffff1673ffffffffffffffffffffffffffffffffffffffff16815260200190815260200160002054905092915050565b600033905090565b6104c583838360016106d4565b505050565b60006104d68484610429565b90507fffffffffffffffffffffffffffffffffffffffffffffffffffffffffffffffff81146105585781811015610548578281836040517ffb8f41b200000000000000000000000000000000000000000000000000000000815260040161053f93929190610e21565b60405180910390fd5b610557848484840360006106d4565b5b50505050565b600073ffffffffffffffffffffffffffffffffffffffff168373ffffffffffffffffffffffffffffffffffffffff16036105d05760006040517f96c6fd1e0000000000000000000000000000000000000000000000000000000081526004016105c79190610e58565b60405180910390fd5b600073ffffffffffffffffffffffffffffffffffffffff168273ffffffffffffffffffffffffffffffffffffffff16036106425760006040517fec442f050000000000000000000000000000000000000000000000000000000081526004016106399190610e58565b60405180910390fd5b61064d8383836108ab565b505050565b600073ffffffffffffffffffffffffffffffffffffffff168273ffffffffffffffffffffffffffffffffffffffff16036106c45760006040517fec442f050000000000000000000000000000000000000000000000000000000081526004016106bb9190610e58565b60405180910390fd5b6106d0600083836108ab565b5050565b600073ffffffffffffffffffffffffffffffffffffffff168473ffffffffffffffffffffffffffffffffffffffff16036107465760006040517fe602df0500000000000000000000000000000000000000000000000000000000815260040161073d9190610e58565b60405180910390fd5b600073ffffffffffffffffffffffffffffffffffffffff168373ffffffffffffffffffffffffffffffffffffffff16036107b85760006040517f94280d620000000000000000000000000000000000000000000000000000000081526004016107af9190610e58565b60405180910390fd5b81600160008673ffffffffffffffffffffffffffffffffffffffff1673ffffffffffffffffffffffffffffffffffffffff16815260200190815260200160002060008573ffffffffffffffffffffffffffffffffffffffff1673ffffffffffffffffffffffffffffffffffffffff1681526020019081526020016000208190555080156108a5578273ffffffffffffffffffffffffffffffffffffffff168473ffffffffffffffffffffffffffffffffffffffff167f8c5be1e5ebec7d5bd14f71427d1e84f3dd0314c0f7b2291e5b200ac8c7c3b9258460405161089c9190610ca0565b60405180910390a35b50505050565b600073ffffffffffffffffffffffffffffffffffffffff168373ffffffffffffffffffffffffffffffffffffffff16036108fd5780600260008282546108f19190610ea2565b925050819055506109d0565b60008060008573ffffffffffffffffffffffffffffffffffffffff1673ffffffffffffffffffffffffffffffffffffffff16815260200190815260200160002054905081811015610989578381836040517fe450d38c00000000000000000000000000000000000000000000000000000000815260040161098093929190610e21565b60405180910390fd5b8181036000808673ffffffffffffffffffffffffffffffffffffffff1673ffffffffffffffffffffffffffffffffffffffff16815260200190815260200160002081905550505b600073ffffffffffffffffffffffffffffffffffffffff168273ffffffffffffffffffffffffffffffffffffffff1603610a195780600260008282540392505081905550610a66565b806000808473ffffffffffffffffffffffffffffffffffffffff1673ffffffffffffffffffffffffffffffffffffffff168152602001908152602001600020600082825401925050819055505b8173ffffffffffffffffffffffffffffffffffffffff168373ffffffffffffffffffffffffffffffffffffffff167fddf252ad1be2c89b69c2b068fc378daa952ba7f163c4a11628f55a4df523b3ef83604051610ac39190610ca0565b60405180910390a3505050565b600081519050919050565b600082825260208201905092915050565b60005b83811015610b0a578082015181840152602081019050610aef565b60008484015250505050565b6000601f19601f8301169050919050565b6000610b3282610ad0565b610b3c8185610adb565b9350610b4c818560208601610aec565b610b5581610b16565b840191505092915050565b60006020820190508181036000830152610b7a8184610b27565b905092915050565b600080fd5b600073ffffffffffffffffffffffffffffffffffffffff82169050919050565b6000610bb282610b87565b9050919050565b610bc281610ba7565b8114610bcd57600080fd5b50565b600081359050610bdf81610bb9565b92915050565b6000819050919050565b610bf881610be5565b8114610c0357600080fd5b50565b600081359050610c1581610bef565b92915050565b60008060408385031215610c3257610c31610b82565b5b6000610c4085828601610bd0565b9250506020610c5185828601610c06565b9150509250929050565b60008115159050919050565b610c7081610c5b565b82525050565b6000602082019050610c8b6000830184610c67565b92915050565b610c9a81610be5565b82525050565b6000602082019050610cb56000830184610c91565b92915050565b600080600060608486031215610cd457610cd3610b82565b5b6000610ce286828701610bd0565b9350506020610cf386828701610bd0565b9250506040610d0486828701610c06565b9150509250925092565b600060ff82169050919050565b610d2481610d0e565b82525050565b6000602082019050610d3f6000830184610d1b565b92915050565b600060208284031215610d5b57610d5a610b82565b5b6000610d6984828501610bd0565b91505092915050565b60008060408385031215610d8957610d88610b82565b5b6000610d9785828601610bd0565b9250506020610da885828601610bd0565b9150509250929050565b7f4e487b7100000000000000000000000000000000000000000000000000000000600052602260045260246000fd5b60006002820490506001821680610df957607f821691505b602082108103610e0c57610e0b610db2565b5b50919050565b610e1b81610ba7565b82525050565b6000606082019050610e366000830186610e12565b610e436020830185610c91565b610e506040830184610c91565b949350505050565b6000602082019050610e6d6000830184610e12565b92915050565b7f4e487b7100000000000000000000000000000000000000000000000000000000600052601160045260246000fd5b6000610ead82610be5565b9150610eb883610be5565b9250828201905080821115610ed057610ecf610e73565b5b9291505056fea2646970667358221220da114ec0f075261b100a2bc6e9a356ebfac47808c19181c05274cc0d2fc1f04364736f6c634300081a0033a2646970667358221220e2afbb54d52d9e5d368dbc6e6c0579bde313e4dd4a5b723faf39a08e77f724fb64736f6c634300081a0033",
  "linkReferences": {},
  "deployedLinkReferences": {}
}